:020000040000FA
:0600000019EF1FF01200D1
:020006001200E6
:06000800DCEF1CF0120009
:02000E000000F0
:020010000000EE
:060018006AEF1CF012006B
:02001E000700D9
:10002000B93F0000AC010000300000000E000000ED
:100030002A0F000004000000583F0000800000006C
:10004000610000003E3F0000E10000001A000000D7
:100050001A3F0000DC010000240000006E3E00009A
:1000600000010000AC0000004E3E0000000F000048
:04007000200000006C
:0C00740058D8A7D80F01095103E0096B10
:1000800042EC1CF00F010B51F7E00B6B4CEC19F03C
:1000900033EC07F082EC09F021EC0FF0EDD7D9CF6B
:1000A000E6FFE1CFD9FF040EE126DE6ADD6ADECF8E
:1000B00014F0DDCF15F0FD0EDBCF16F0FE0EDBCF1A
:1000C00017F015501718E8AE02D0173404D01650A8
:1000D000145C175015581DE2020EDB6A030EDB6A32
:1000E000020EDBCF14F0030EDBCF15F0D8901550C5
:1000F00004E6EE0E145C000E155806E2020EDB2A32
:10010000030EEEE3DB2AECD7DF2A010ED0E3DB2A75
:10011000CED7040EE15C02E2E16AE552E16EE552FF
:10012000E7CFD9FF1200F2EC0EF0936A956A926A5B
:10013000966A836A52EC0BF0E668E66897EC13F077
:10014000E552E55262EC1CF0E80EE66E030EE66E38
:10015000A6DFE552E552000EE66EE66ACEEC14F03C
:10016000E552E552570EE66E120EE66E5CEC16F0A6
:10017000E552E552570EE66E120EE66EFEEC16F0F4
:10018000E552E552660EE66EB70EE66EBFEC17F06E
:10019000E552E552E80EE66E030EE66E9AEC18F0B4
:1001A000E552E552E80EE66E030EE66EACEC18F092
:1001B000E552E552320EE66EE66ACBEC18F0E552F7
:1001C000E552EAEF18F0F2EC0EF00001F46BF56B7B
:1001D000030EEB6FEC6B020EEF6FF06B030EED6F27
:1001E000EE6B020EF16FF26B010EF36FE80EE66E2E
:1001F000030EE66E9AEC18F0E552E552DE0EE66E5E
:10020000E66897EC13F0E552E552470EE66E3C0EB9
:10021000E66EE66AE66A67EC11F0E552E552E552F1
:10022000E5520001F451E55D146EE651F555156E89
:1002300014C0E6FFE66EE551E925186EE651EA21A5
:10024000196EF451185C166EF5511958176E16C0D8
:10025000E6FFE66EC1D9E552E552E552E5521200DD
:100260000001F351020A01E14DD1020A01E1DDD0A2
:10027000030A70E0020A01E012000F01085101E1D7
:10028000AAD10001F42B000EF5230F01086B470ED5
:10029000E66E3C0EE66EE66AE66A67EC11F0E55241
:1002A000E552E552E5520001F451E55D146EE65168
:1002B000F555156E14C0E6FFE66EE551E925186E9A
:1002C000E651EA21196EF451185C166EF551195871
:1002D000176E16C0E6FFE66E7FD9E552E552E5528D
:1002E000E5520001E551F41934E1E651F51901E058
:1002F00072D1EE0EE66EE66897EC13F0E552E55229
:100300000001030EF36FF46BF56B380EE66E3C0ED6
:10031000E66EE66AE66A67EC11F0E552E552E552F0
:10032000E5520001F451E95D146EEA51F555156E80
:1003300014C0E6FFE66EF451E95D166EEA51F5551C
:10034000176E16C0E6FFE66E47D9E552E552E55254
:10035000E55212000F01085101E13DD10001F42BDB
:10036000000EF5230F01086B380EE66E3C0EE66EAC
:10037000E66AE66A67EC11F0E552E552E552E552AD
:100380000001F451E95D146EEA51F555156E14C083
:10039000E6FFE66EF451E95D166EEA51F555176E0B
:1003A00016C0E6FFE66E18D9E552E552E552E55271
:1003B0000001E951F41938E1EA51F51901E00BD1D6
:1003C000F46BF56BF36BF30EE66EE66897EC13F0E7
:1003D000E552E552290EE66E3C0EE66EE66AE66AE6
:1003E00067EC11F0E552E552E552E5520001E351A8
:1003F000E725166EE451E821176EF451165C146E71
:10040000F5511758156E14C0E6FFE66EF451E35D22
:10041000186EE451F555196E18C0E6FFE66EDCD88B
:10042000E552E552E552E55212000F01085101E193
:10043000D2D00001F42B000EF5230F01086B290E1A
:10044000E66E3C0EE66EE66AE66A67EC11F0E5528F
:10045000E552E552E5520001E351E725166EE451FD
:10046000E821176EF451165C146EF5511758156E8D
:1004700014C0E6FFE66EF451E35D186EE451F555E5
:10048000196E18C0E6FFE66EA7D8E552E552E552B0
:10049000E5520001E351F41934E1E451F51901E0AA
:1004A0009AD0F50EE66EE66897EC13F0E552E55249
:1004B0000001020EF36FF46BF56B1A0EE66E3C0E44
:1004C000E66EE66AE66A67EC11F0E552E552E5523F
:1004D000E5520001F451E75D146EE851F555156ED3
:1004E00014C0E6FFE66EF451E75D166EE851F5556F
:1004F000176E16C0E6FFE66E6FD8E552E552E5527C
:10050000E55212000F01085166E00001F42B000EC5
:10051000F5230F01086B1A0EE66E3C0EE66EE66AD6
:10052000E66A67EC11F0E552E552E552E55200014A
:10053000F451E75D146EE851F555156E14C0E6FFF1
:10054000E66EF451E75D166EE851F555176E16C06C
:10055000E6FFE66E41D8E552E552E552E55200016C
:10056000E751F41938E1E851F51935E1F46BF56B11
:10057000010EF36FDE0EE66EE66897EC13F0E552BF
:10058000E552470EE66E3C0EE66EE66AE66A67ECFA
:1005900011F0E552E552E552E5520001F451E55DF6
:1005A000146EE651F555156E14C0E6FFE66EE55182
:1005B000E925186EE651EA21196EF451185C166EA1
:1005C000F5511958176E16C0E6FFE66E05D8E552CC
:1005D000E552E552E5521200D9CFE6FFE1CFD9FF4F
:1005E000FB0EDBCFE6FFFC0EDBCFE6FFFD0EDBCF25
:1005F000E6FFFE0EDBCFE6FFEEEC1BF0E552E55228
:10060000E552E552FD0EDBCF14F0FE0EDBCF15F008
:100610000A0E0D6E0E6A14C008F015C009F044EC05
:100620001DF008C014F009C015F0166A176A15AE5F
:1006300002D01668176814C0E6FF15C0E6FF16C0A2
:10064000E6FF17C0E6FF070EE66E010EE66E40EC11
:1006500010F0186E060EE15E1850FD0EDBCF14F0A0
:10066000FE0EDBCF15F00A0E0D6E0E6A14C008F0F8
:1006700015C009F044EC1DF004C014F005C015F0DD
:10068000166A176A15AE02D01668176814C0E6FF1E
:1006900015C0E6FF16C0E6FF17C0E6FF080EE66EBF
:1006A000010EE66E40EC10F0186E060EE15E18507A
:1006B000FB0EDBCF14F0FC0EDBCF15F00A0E0D6E37
:1006C0000E6A14C008F015C009F044EC1DF008C013
:1006D00014F009C015F0166A176A15AE02D0166834
:1006E000176814C0E6FF15C0E6FF16C0E6FF17C086
:1006F000E6FF0C0EE66E010EE66E40EC10F0186E92
:10070000060EE15E1850FB0EDBCF14F0FC0EDBCFC3
:1007100015F00A0E0D6E0E6A14C008F015C009F02F
:1007200044EC1DF004C014F005C015F0166A176AF9
:1007300015AE02D01668176814C0E6FF15C0E6FFB4
:1007400016C0E6FF17C0E6FF0D0EE66E010EE66E60
:1007500040EC10F0186E060EE15E1850E552E7CF3F
:10076000D9FF1200D9CFE6FFE1CFD9FFFD0EDBCFD5
:1007700014F0FE0EDBCF15F00A0E0D6E0E6A14C0DB
:1007800008F015C009F044EC1DF008C014F009C0D1
:1007900015F0166A176A15AE02D01668176814C0ED
:1007A000E6FF15C0E6FF16C0E6FF17C0E6FF020E23
:1007B000E66E010EE66E40EC10F0186E060EE15E7D
:1007C0001850FD0EDBCF14F0FE0EDBCF15F00A0E35
:1007D0000D6E0E6A14C008F015C009F044EC1DF04F
:1007E00004C014F005C015F0166A176A15AE02D0E1
:1007F0001668176814C0E6FF15C0E6FF16C0E6FFCE
:1008000017C0E6FF030EE66E010EE66E40EC10F038
:10081000186E060EE15E1850FB0EDBCF14F0FC0ED6
:10082000DBCF15F00A0E0D6E0E6A14C008F015C06D
:1008300009F044EC1DF008C014F009C015F0166A68
:10084000176A15AE02D01668176814C0E6FF15C007
:10085000E6FF16C0E6FF17C0E6FF070EE66E010EC4
:10086000E66E40EC10F0186E060EE15E1850FB0EBE
:10087000DBCF14F0FC0EDBCF15F00A0E0D6E0E6A06
:1008800014C008F015C009F044EC1DF004C014F0C9
:1008900005C015F0166A176A15AE02D016681768FB
:1008A00014C0E6FF15C0E6FF16C0E6FF17C0E6FF5E
:1008B000080EE66E010EE66E40EC10F0186E060EA5
:1008C000E15E1850F90EDBCF14F0FA0EDBCF15F015
:1008D0000A0E0D6E0E6A14C008F015C009F044EC43
:1008E0001DF008C014F009C015F0166A176A15AE9D
:1008F00002D01668176814C0E6FF15C0E6FF16C0E0
:10090000E6FF17C0E6FF0C0EE66E010EE66E40EC49
:1009100010F0186E060EE15E1850F90EDBCF14F0E1
:10092000FA0EDBCF15F00A0E0D6E0E6A14C008F039
:1009300015C009F044EC1DF004C014F005C015F01A
:10094000166A176A15AE02D01668176814C0E6FF5B
:1009500015C0E6FF16C0E6FF17C0E6FF0D0EE66EF7
:10096000010EE66E40EC10F0186E060EE15E1850B7
:10097000E552E7CFD9FF1200D9CFE6FFE1CFD9FF8B
:10098000FD0EDBCF14F0FE0EDBCF15F00A0E0D6E60
:100990000E6A14C008F015C009F044EC1DF008C040
:1009A00014F009C015F0166A176A15AE02D0166861
:1009B000176814C0E6FF15C0E6FF16C0E6FF17C0B3
:1009C000E6FFE66A010EE66E40EC10F0186E060EC9
:1009D000E15E1850FD0EDBCF14F0FE0EDBCF15F0FC
:1009E0000A0E0D6E0E6A14C008F015C009F044EC32
:1009F0001DF004C014F005C015F0166A176A15AE94
:100A000002D01668176814C0E6FF15C0E6FF16C0CE
:100A1000E6FF17C0E6FF010EE66EE66E40EC10F052
:100A2000186E060EE15E1850FB0EDBCF14F0FC0EC4
:100A3000DBCF15F00A0E0D6E0E6A14C008F015C05B
:100A400009F044EC1DF008C014F009C015F0166A56
:100A5000176A15AE02D01668176814C0E6FF15C0F5
:100A6000E6FF16C0E6FF17C0E6FF040EE66E010EB5
:100A7000E66E40EC10F0186E060EE15E1850FB0EAC
:100A8000DBCF14F0FC0EDBCF15F00A0E0D6E0E6AF4
:100A900014C008F015C009F044EC1DF004C014F0B7
:100AA00005C015F0166A176A15AE02D016681768E9
:100AB00014C0E6FF15C0E6FF16C0E6FF17C0E6FF4C
:100AC000050EE66E010EE66E40EC10F0186E060E96
:100AD000E15E1850F90EDBCF14F0FA0EDBCF15F003
:100AE0000A0E0D6E0E6A14C008F015C009F044EC31
:100AF0001DF008C014F009C015F0166A176A15AE8B
:100B000002D01668176814C0E6FF15C0E6FF16C0CD
:100B1000E6FF17C0E6FF080EE66E010EE66E40EC3B
:100B200010F0186E060EE15E1850F90EDBCF14F0CF
:100B3000FA0EDBCF15F00A0E0D6E0E6A14C008F027
:100B400015C009F044EC1DF004C014F005C015F008
:100B5000166A176A15AE02D01668176814C0E6FF49
:100B600015C0E6FF16C0E6FF17C0E6FF090EE66EE9
:100B7000010EE66E40EC10F0186E060EE15E1850A5
:100B8000F70EDBCF14F0F80EDBCF15F00A0E0D6E6A
:100B90000E6A14C008F015C009F044EC1DF008C03E
:100BA00014F009C015F0166A176A15AE02D016685F
:100BB000176814C0E6FF15C0E6FF16C0E6FF17C0B1
:100BC000E6FF0C0EE66E010EE66E40EC10F0186EBD
:100BD000060EE15E1850F70EDBCF14F0F80EDBCFF7
:100BE00015F00A0E0D6E0E6A14C008F015C009F05B
:100BF00044EC1DF004C014F005C015F0166A176A25
:100C000015AE02D01668176814C0E6FF15C0E6FFDF
:100C100016C0E6FF17C0E6FF0D0EE66E010EE66E8B
:100C200040EC10F0186E060EE15E1850E552E7CF6A
:100C3000D9FF1200D9CFE6FFE1CFD9FFFD0EDBCF00
:100C400008F0FE0EDBCF09F0050E081801E109508F
:100C500001E1CBD0040E081801E1095001E190D068
:100C6000030E081801E1095056E0020E081801E1D0
:100C7000095014E0010E081801E0F1D0095001E01C
:100C8000EED0E9C0F1F0EAC0F2F0E668E66897EC71
:100C900013F0E552E552E3EC00F0E1D0F2EC0EF097
:100CA000090EE66E3C0EE66EE66AE66A67EC11F047
:100CB000E552E552E552E552E9C0E6FFEAC0E6FF3B
:100CC000E5C0E6FFE6C0E6FFE7C0E6FFE8C0E6FFF6
:100CD000E3C0E6FFE4C0E6FF4FDE146E080EE15EFF
:100CE0001450020EE66EE66AE3C0E6FFE4C0E6FFDB
:100CF000EEEC1BF0E552E552E552E552F40EE66EDD
:100D0000010EE66E9AEC18F0E552E552E668E668E8
:100D100097EC13F0A2D0F2EC0EF0E3C0EBF0E4C0DD
:100D2000ECF0F80EE66E3B0EE66EE66AE66A67ECFD
:100D300011F0E552E552E552E552E9C0E6FFEAC09E
:100D4000E6FFE5C0E6FFE6C0E6FFE7C0E6FFE8C075
:100D5000E6FFE3C0E6FFE4C0E6FF0EDE146E080E19
:100D6000E15E1450E668E66897EC13F0E552E55250
:100D7000030EE66EE66AE7C0E6FFE8C0E6FF69D06C
:100D8000E7C0EFF0E8C0F0F0F2EC0EF0E70EE66E30
:100D90003B0EE66EE66AE66A67EC11F0E552E55254
:100DA000E552E552E9C0E6FFEAC0E6FFE5C0E6FF2E
:100DB000E6C0E6FFE7C0E6FFE8C0E6FFE3C0E6FF07
:100DC000E4C0E6FFD9DD146E080EE15E1450E6685B
:100DD000E66897EC13F0E552E552040EE66EE66A1B
:100DE000E5C0E6FFE6C0E6FF34D0E5C0EDF0E6C0C2
:100DF000EEF0F2EC0EF0D60EE66E3B0EE66EE66A14
:100E0000E66A67EC11F0E552E552E552E552E9C0B9
:100E1000E6FFEAC0E6FFE5C0E6FFE6C0E6FFE7C0A2
:100E2000E6FFE8C0E6FFE3C0E6FFE4C0E6FFA4DDBE
:100E3000146E080EE15E1450E668E66897EC13F055
:100E4000E552E552050EE66EE66AE9C0E6FFEAC045
:100E5000E6FFEEEC1BF0E552E552E552E552E552B5
:100E6000E7CFD9FF12000101010EB41901E1B5511C
:100E700005E0140EB45D000EB55915E3050E000132
:100E8000E25D03E1010EE26F01D0E22BE2C014F05B
:100E9000156A14BE156814C0E6FF15C0E6FFCADE69
:100EA000E552E5521200010EB61901E1B75106E014
:100EB000140EB65D000EB75901E2D4D00001E25124
:100EC000050A01E19AD0010A63E0070A32E0010A4B
:100ED00001E01200EBC014F0ECC015F0EB2B000E9B
:100EE000EC23D890155004E6630E145C000E1558E0
:100EF00003E3010EEB6FEC6BE9C0E6FFEAC0E6FF2F
:100F0000E5C0E6FFE6C0E6FFE7C0E6FFE8C0E6FFB3
:100F1000EBC0E6FFECC0E6FF2FDD146E080EE15ECD
:100F20001450020EE66EE66AEBC0E6FFECC0E6FF88
:100F30005DD0EFC014F0F0C015F0EF2B000EF023E1
:100F4000D890155004E6630E145C000E155803E3A8
:100F5000010EEF6FF06BE9C0E6FFEAC0E6FFE5C007
:100F6000E6FFE6C0E6FFEFC0E6FFF0C0E6FFE3C045
:100F7000E6FFE4C0E6FF00DD146E080EE15E1450EB
:100F8000030EE66EE66AEFC0E6FFF0C0E6FF2ED085
:100F9000EDC014F0EEC015F0ED2B000EEE23D8904E
:100FA000155004E6630E145C000E155803E3010EA1
:100FB000ED6FEE6BE9C0E6FFEAC0E6FFEDC0E6FFCD
:100FC000EEC0E6FFE7C0E6FFE8C0E6FFE3C0E6FFED
:100FD000E4C0E6FFD1DC146E080EE15E1450040E8E
:100FE000E66EE66AEDC0E6FFEEC0E6FFEEEC1BF053
:100FF000E552E552E552E5521200F1C014F0F2C09C
:1010000015F0F12B000EF223D890155004E6630E74
:10101000145C000E155803E3010EF16FF26B050E20
:10102000E66EE66AF1C0E6FFF2C0E6FFEEEC1BF00A
:10103000E552E552E552E552F1C0E6FFF2C0E6FFA7
:10104000E5C0E6FFE6C0E6FFE7C0E6FFE8C0E6FF72
:10105000E3C0E6FFE4C0E6FF8FDC146E080EE15E3D
:1010600014501200010EB81901E1B95106E0140E36
:10107000B85D000EB95901E2D2D00001E251050A73
:1010800001E198D0010A61E0070A31E0010A01E0BC
:101090001200EBC014F0ECC015F0EB07000EEC5B97
:1010A000153404E214500108000E155403E3630ED6
:1010B000EB6FEC6BE9C0E6FFEAC0E6FFE5C0E6FFD8
:1010C000E6C0E6FFE7C0E6FFE8C0E6FFEBC0E6FFEC
:1010D000ECC0E6FF51DC146E080EE15E1450020E07
:1010E000E66EE66AEBC0E6FFECC0E6FF5CD0EFC060
:1010F00014F0F0C015F0EF07000EF05B153404E2B9
:1011000014500108000E155403E3630EEF6FF06BEB
:10111000E9C0E6FFEAC0E6FFE5C0E6FFE6C0E6FF9D
:10112000EFC0E6FFF0C0E6FFE3C0E6FFE4C0E6FF85
:1011300023DC146E080EE15E1450030EE66EE66AC0
:10114000EFC0E6FFF0C0E6FF2ED0EDC014F0EEC019
:1011500015F0ED07000EEE5B153404E214500108A3
:10116000000E155403E3630EED6FEE6BE9C0E6FF6E
:10117000EAC0E6FFEDC0E6FFEEC0E6FFE7C0E6FF2F
:10118000E8C0E6FFE3C0E6FFE4C0E6FFBCEC04F025
:10119000146E080EE15E1450040EE66EE66AEDC0B1
:1011A000E6FFEEC0E6FFEEEC1BF0E552E552E5523D
:1011B000E5521200F1C014F0F2C015F0F107000E74
:1011C000F25B153404E214500108000E155403E3D9
:1011D000630EF16FF26B050EE66EE66AF1C0E6FF94
:1011E000F2C0E6FFEEEC1BF0E552E552E552E552A7
:1011F000F1C0E6FFF2C0E6FFE5C0E6FFE6C0E6FFAD
:10120000E7C0E6FFE8C0E6FFE3C0E6FFE4C0E6FFB4
:10121000BCEC04F0146E080EE15E14501200010ED6
:10122000BA1901E1BB5105E0140EBA5D000EBB59BD
:101230005AE30001E251050A25E0010A19E0070A14
:101240000DE0010A01E01200EBC0E3F0ECC0E4F0B5
:10125000F2EC0EF0C90EE66E3B0E1DD0EFC0E7F0CB
:10126000F0C0E8F0F2EC0EF0BC0EE66E3B0E13D0D0
:10127000EDC0E5F0EEC0E6F0F2EC0EF0AF0EE66E7B
:101280003B0E09D0F1C0E9F0F2C0EAF0F2EC0EF04A
:10129000A20EE66E3B0EE66EE66AE66A67EC11F0B9
:1012A000E552E552E552E552E80EE66E030EE66EB3
:1012B0009AEC18F0E552E552E9C0E6FFEAC0E6FF15
:1012C000E5C0E6FFE6C0E6FFE7C0E6FFE8C0E6FFF0
:1012D000E3C0E6FFE4C0E6FFBCEC04F0146E080EC9
:1012E000E15E14501200BC51BD1101E01200BE516C
:1012F000BF1101E01200C051C11101E01200C25142
:10130000C31112000001E251050A4CE0010A2BE072
:10131000070A18E0010A05E0030A01E0120030EFB5
:1013200001F00F0108515CE0090EE66E3C0EE66E1E
:10133000E66AE66A67EC11F0E552E552E552E552DD
:10134000020E21D00F0108514BE0F80EE66E3B0E65
:10135000E66EE66AE66A67EC11F0E552E552E552A0
:10136000E552010E10D00F0108513AE0E70EE66E8B
:101370003B0EE66EE66AE66A67EC11F0E552E5526E
:10138000E552E552050EE66EE66AC0EC13F0E55252
:10139000E552F40EE66E010EE66E9AEC18F0E55298
:1013A000E55212000F0108511BE0910EE66E3B0E54
:1013B000E66EE66AE66A67EC11F0E552E552E55240
:1013C000E552040EE66EE66AC0EC13F0E552E55213
:1013D000F40EE66E010EE66E9AEC18F0E552E55258
:1013E00012000101010EB41901E1B5510EE00A0E1F
:1013F000B45D000EB5590AE3B4C114F0156A010ECC
:101400001416141803E1155001E1010C000C010140
:10141000010EB61903E1B75101E1010C000CE1DF47
:10142000000902E00001FA2BF2DF000902E00001EE
:10143000FA078C0EE66E3B0EE66EE66AE66A67EC2D
:1014400011F0E552E552E552E552FAC014F0156A82
:10145000166A176A14AE03D015681668176814C0A8
:10146000E6FF15C0E6FF16C0E6FF17C0E6FFE66A16
:10147000E66A40EC10F0186E060EE15E185012009D
:10148000D9CFE6FFE1CFD9FF020EE126DE6ADD6AA1
:10149000DECF14F0DDCF15F0153404E214500F0840
:1014A000000E155425E3DECFE9FFDDCFEAFFD8902B
:1014B000E936EA36AC0EE926010EEA22EE50ED10CE
:1014C00004E08A0EE66E3B0E03D0880EE66E3B0EFD
:1014D000E66EDFCFE6FF010EE66E67EC11F0E55237
:1014E000E552E552E552DF2A010ED2E3DB2AD0D7DE
:1014F000020EE15C02E2E16AE552E16EE552E7CFFD
:04150000D9FF1200FD
:0C150400D9CFE6FFE1CFD9FF040EE126AD
:10151000DE6ADD6ADECF14F0DDCF15F0166A176AD9
:1015200015AE02D016681768D950FB0FE96EFF0E92
:10153000DA20EA6EEE50145CEE501558EE50165854
:10154000EE5017581DE2020EDB6A030EDB6A020E34
:10155000DBCF14F0030EDBCF15F0D890155004E666
:10156000050E145C000E155806E2020EDB2A030E6F
:10157000EEE3DB2AECD7DF2A010ECCE3DB2ACAD765
:10158000040EE15C02E2E16AE552E16EE552E7CF6A
:10159000D9FF1200D9CFE6FFE1CFD9FF040EE12633
:1015A000DE6ADD6ADECF14F0DDCF15F0166A176A49
:1015B00015AE02D016681768D950FB0FE96EFF0E02
:1015C000DA20EA6EEE50145CEE501558EE501658C4
:1015D000EE5017581DE2020EDB6A030EDB6A020EA4
:1015E000DBCF14F0030EDBCF15F0D890155004E6D6
:1015F000EE0E145C000E155806E2020EDB2A030EF6
:10160000EEE3DB2AECD7DF2A010ECCE3DB2ACAD7D4
:10161000040EE15C02E2E16AE552E16EE552E7CFD9
:10162000D9FF1200D9CFE6FFE1CFD9FF0F0E811607
:10163000FE0EDB50F00B81128186010EE66EE66A2B
:10164000E66AE66AA7DFE552E552E552E552819681
:10165000010EE66EE66AE66AE66A9CDFE552E5524E
:10166000E552E5520F0E8116FE0EDB38F00B8112AB
:101670008186010EE66EE66AE66AE66A8BDFE5526F
:10168000E552E552E5528196010EE66EE66AE66A9B
:10169000E66A80DFE552E552E552E552E552E7CFD2
:1016A000D9FF1200D9CFE6FFE1CFD9FFE652190EDC
:1016B000E66EE66AE66AE66A6DDFE552E552E552F5
:1016C000E5520F0E8116F80E81160F0E8116300EA0
:1016D00081128186010EE66EE66AE66AE66A5ADFE4
:1016E000E552E552E552E5528196010EE66EE66A54
:1016F000E66AE66A4FDFE552E552E552E5520F0E23
:101700008116300E81128186010EE66EE66AE66A67
:10171000E66A40DFE552E552E552E5528196010E58
:10172000E66EE66AE66AE66A35DFE552E552E552BC
:10173000E5520F0E8116300E81128186010EE66E83
:10174000E66AE66AE66A26DFE552E552E552E552C8
:101750008196010EE66EE66AE66AE66A1BDFE552EE
:10176000E552E552E5520F0E8116818A8186010EFF
:10177000E66EE66AE66AE66A0DDFE552E552E55294
:10178000E5528196010EE66EE66AE66AE66A02DFD7
:10179000E552E552E552E552280EE66E43DFE5528A
:1017A0000C0EE66E3FDFE552E552E552E7CFD9FF7A
:1017B0001200D9CFE6FFE1CFD9FF020EE126DF6AA2
:1017C000010EDB6A81940F0EE66EE66AE66AE66A4F
:1017D00099DEE552E552E552E5520F0E81128186FF
:1017E000E66EE66AE66AE66A8DDEE552E552E552A5
:1017F000E5520F0E8114E76E010EE7CFDBFF8196F5
:101800000F0EE66EE66AE66AE66A7CDEE552E552AF
:10181000E552E5520F0E81128186E66EE66AE66AAF
:10182000E66A70DEE552E552E552E5520F0E81148C
:10183000DF6E010EDB50DF128196010EE66EE66A66
:10184000E66AE66A5FDEE552E552E552E552DF50B0
:10185000146E020EE15C02E2E16AE552E16E1450A0
:10186000E552E7CFD9FF1200D9CFE6FFE1CFD9FF8C
:10187000E652DF6A9EDFDF6EDFBEFCD7DF50E55247
:10188000E552E7CFD9FF1200D9CFE6FFE1CFD9FF6C
:101890000F0E8116FE0EDB5081128186050EE66E5C
:1018A000E66AE66AE66A2EDEE552E552E552E55260
:1018B0008196050EE66EE66AE66AE66A23DEE55282
:1018C000E552E552E552E552E7CFD9FF1200D9CFF4
:1018D000E6FFE1CFD9FF8194050EE66EE66AE66A7F
:1018E000E66A10DEE552E552E552E552FE0EDBCF28
:1018F000E6FFCADFE552FE0EDB38F00BE66EC4DF12
:10190000E552E552E7CFD9FF1200D9CFE6FFE1CF8C
:10191000D9FF8184050EE66EE66AE66AE66AF2DDC4
:10192000E552E552E552E552FE0EDBCFE6FFACDFB5
:10193000E552FE0EDB38F00BE66EA6DFE552819431
:10194000E552E7CFD9FF1200D9CFE6FFE1CFD9FFAB
:10195000FE0EDBCFE6FFD9DFE552E552E7CFD9FF38
:101960001200D9CFE6FFE1CFD9FFFE0EDBCFE6FFB5
:10197000CCDFE552E552E7CFD9FF1200D9CFE6FF21
:10198000E1CFD9FFFD0EDBCFF6FFFE0EDBCFF7FF79
:101990000800F5500FE0FD0EDBCFF6FFDB2AFE0E50
:1019A000DBCFF7FF01E3DB2A0800F550E66ED9DF55
:1019B000E552E8D7E552E7CFD9FF1200D9CFE6FFCD
:1019C000E1CFD9FFE652FD0EDB500F0B146EFE0E79
:1019D000DB50010B400DF3501424DF6E7F0EDF143B
:1019E000800FDF6EDFCFE6FF72DFE552E552E55292
:1019F000E7CFD9FF1200010EE66E69DFE552E66A15
:101A0000E66ADCDFE552E5521200D9CFE6FFE1CF0E
:101A1000D9FF050EE126010EF36EDB6E020EDB6AC6
:101A2000030EDB6A040EDB6ADF6ADFCF14F0156A8F
:101A300014BE1568FB0EDBCF16F0FC0EDBCF17F0E3
:101A400015501718E8AE02D0173404D01650145CA5
:101A5000175015582DE2FD0EDBCF14F0FE0EDBCF34
:101A600015F0166A176A15AE02D016681768D950B5
:101A7000010FE96EDACFEAFF14C00BF015C00CF0CD
:101A800016C00DF017C00EF0EECF06F0EECF07F047
:101A9000EECF08F0EFCF09F07AEC1EF005C0EDFFB5
:101AA00004C0EDFF03C0EDFF02C0EFFFDF2ABDD78A
:101AB000010EDBCF14F0020EDBCF15F0030EDBCFEF
:101AC00016F0040EDBCF17F014C006F015C007F0B7
:101AD00016C008F017C009F0050EE15C02E2E16AE9
:101AE000E552E16EE552E7CFD9FF1200D9CFE6FF0C
:101AF000E1CFD9FF020EE126DF6AFB0EDBCF14F047
:101B0000FC0EDBCF15F0FD0EDBCF16F0FE0EDBCFAB
:101B100017F0145015101610171005E1300EE66E70
:101B200020DFE552F4D0D950FB0FE96EFF0EDA202A
:101B3000EA6ED890030EEB50000A08E6000EEE5C49
:101B4000000EEE58000EEE58000EEE5815E22D0E67
:101B5000E66E07DFE552D950FB0FE96EFF0EDA2083
:101B6000EA6E000EEE6CEF1EEE22EF1EEE22EF1E6E
:101B7000EF22ED52ED52ED52DE52070EDD6E010EF8
:101B8000DBCF14F0000EE76E1418E8AE02D0143468
:101B900003D0E750D880145401E3B9D0010EDB0420
:101BA000186E196A18BE196818C0E6FF19C0E6FF5A
:101BB0000A0EE66EE66A29DFE552E552E552E55285
:101BC00006C014F007C015F008C016F009C017F0E1
:101BD00006C00BF007C00CF008C00DF009C00EF0F5
:101BE000FB0EDBCF06F0FC0EDBCF07F0FD0EDBCFEC
:101BF00008F0FE0EDBCF09F0B2EC1EF00650071025
:101C00000810091041E0010EDF6EDB041C6E1D6A36
:101C10001CBE1D681CC0E6FF1DC0E6FF0A0EE66E76
:101C2000E66AF3DEE552E552E552E55206C018F0E9
:101C300007C019F008C01AF009C01BF006C00BF06D
:101C400007C00CF008C00DF009C00EF0FB0EDBCF92
:101C500006F0FC0EDBCF07F0FD0EDBCF08F0FE0E2A
:101C6000DBCF09F0B2EC1EF006C014F007C015F08F
:101C700008C016F009C017F0300E1426000E152209
:101C800016221722145003D0DF5004E0300EE66E07
:101C900068DEE552010EDB04186E196A18BE196879
:101CA00018C0E6FF19C0E6FF0A0EE66EE66AADDE72
:101CB000E552E552E552E55206C014F007C015F0B2
:101CC00008C016F009C017F0D950FB0FE96EFF0EDF
:101CD000DA20EA6E06C00BF007C00CF008C00DF069
:101CE00009C00EF0EECF06F0EECF07F0EECF08F011
:101CF000EFCF09F0B2EC1EF005C0EDFF04C0EDFF20
:101D000003C0EDFF02C0EFFF010EDB0638D7020E65
:101D1000E15C02E2E16AE552E16EE552E7CFD9FF0C
:101D20001200D9CFE6FFE1CFD9FFFD0EDBCFE6FFF2
:101D3000FE0EDBCFE6FF42DEE552E552D950F90F49
:101D4000E96EFF0EDA20EA6EEECFE6FFEECFE6FF99
:101D5000EECFE6FFEFCFE6FFC9DEE552E552E552F2
:101D6000E552E552E7CFD9FF1200D9CFE6FFE1CF28
:101D7000D9FFFD0EDBCFE6FFFE0EDBCFE6FF1EDE5A
:101D8000E552E552FB0EDBCFE6FFFC0EDBCFE6FFB4
:101D9000F5DDE552E552E552E7CFD9FF1200D9CF84
:101DA000E6FFE1CFD9FFFBC014F0FCC015F0040E34
:101DB000D89014361536E806FBE1C10E1426000E45
:101DC000152214500001FD25E96E1550FE21EA6E22
:101DD000FE0EDBCFEFFFFD2B000EFE23E552E7CF1B
:101DE000D9FF1200D9CFE6FFE1CFD9FFE652DF6A73
:101DF000DFCF14F0100EE76E1418E8AE02D0E7340F
:101E000002D0E750145C18E2DFCFE9FFEA6AE9BECE
:101E1000EA68C10EE926000EEA22200EEF6EDFCF3F
:101E2000E9FFEA6AE9BEEA68D10EE926000EEA2275
:101E3000200EEF6EDF2ADCD7E552E552E7CFD9FF5F
:101E40001200D9CFE6FFE1CFD9FFE6520001C05121
:101E5000030A52E0010A36E0030A1AE0010A67E1C8
:101E6000E66AE66AABDDE552E552DF6A080EDF5C42
:101E70000CE2DF50EA6AC10FE96E000EEA22EF5071
:101E8000E66E6FDDE552DF2AF1D70001010E32D098
:101E9000080EE66EE66A92DDE552E552DF6A080E4C
:101EA000DF5C0DE2080EDF24EA6AC10FE96E000E66
:101EB000EA22EF50E66E55DDE552DF2AF0D7000149
:101EC000020E18D0E66A010EE66E78DDE552E552A4
:101ED000DF6A080EDF5C0CE2DF50EA6AD10FE96EC0
:101EE000000EEA22EF50E66E3CDDE552DF2AF1D724
:101EF0000001030EC06F1CD0080EE66E010EE66EE8
:101F00005DDDE552E552DF6A080EDF5C0DE2080E8A
:101F1000DF24EA6AD10FE96E000EEA22EF50E66E86
:101F200020DDE552DF2AF0D70001C06B01D0C06B85
:101F3000E552E552E7CFD9FF1200D9CFE6FFE1CF56
:101F4000D9FFE6520001C051010A1BE0010A32E14B
:101F5000E66AE66A33DDE552E552DF6A100EDF5CC1
:101F60000CE2DF50EA6AC10FE96E000EEA22EF5080
:101F7000E66EF7DCE552DF2AF1D70001010EC06FF3
:101F80001AD0E66A010EE66E19DDE552E552DF6A07
:101F9000100EDF5C0CE2DF50EA6AD10FE96E000E32
:101FA000EA22EF50E66EDDDCE552DF2AF1D70001D0
:101FB000C06B01D0C06BE552E552E7CFD9FF1200EC
:101FC000D9CFE6FFE1CFD9FFE652E66AE66AF6DC52
:101FD000E552E552DF6A100EDF5C0CE2DF50EA6A80
:101FE000C10FE96E000EEA22EF50E66EBADCE55250
:101FF000DF2AF1D7E66A010EE66EE0DCE552E55233
:10200000DF6A100EDF5C0CE2DF50EA6AD10FE96E86
:10201000000EEA22EF50E66EA4DCE552DF2AF1D78B
:10202000E552E552E7CFD9FF1200D9CFE6FFE1CF65
:10203000D9FFFE0EDB50010B0001FB6FFC6BFD0EA8
:10204000DB500F0BFD6FFE6BFBC014F0FCC015F0F6
:10205000040ED89014361536E806FBE1C10E14269E
:10206000000E152214500001FD25E96E1550FE21C9
:10207000EA6EFC0EDBCFEFFFE552E7CFD9FF12008F
:10208000D9CFE6FFE1CFD9FF020EE126DF6AFE0ECF
:10209000DB50010B0001FB6FFC6BFD0EDB500F0BE7
:1020A000FD6FFE6BF90EDBCF14F0FA0EDBCF15F0EF
:1020B000FB0EDBCF16F0FC0EDBCF17F01450151023
:1020C0001610171005E1300EE66E69DEE552F5D008
:1020D000D950F90FE96EFF0EDA20EA6ED890030EA0
:1020E000EB50000A08E6000EEE5C000EEE58000E03
:1020F000EE58000EEE5815E22D0EE66E50DEE5525B
:10210000D950F90FE96EFF0EDA20EA6E000EEE6C80
:10211000EF1EEE22EF1EEE22EF1EEF22ED52ED52E9
:10212000ED52DE52070EDD6E010EDBCF14F0000E15
:10213000E76E1418E8AE02D0143403D0E750D8800C
:10214000145401E3BAD0010EDB04186E196A18BEEC
:10215000196818C0E6FF19C0E6FF0A0EE66EE66AC7
:1021600054DCE552E552E552E55206C014F007C0D2
:1021700015F008C016F009C017F006C00BF007C034
:102180000CF008C00DF009C00EF0F90EDBCF06F020
:10219000FA0EDBCF07F0FB0EDBCF08F0FC0EDBCF37
:1021A00009F0B2EC1EF0065007100810091041E0CB
:1021B000010EDF6EDB041C6E1D6A1CBE1D681CC098
:1021C000E6FF1DC0E6FF0A0EE66EE66A1EDCE5527B
:1021D000E552E552E55206C018F007C019F008C0F4
:1021E0001AF009C01BF006C00BF007C00CF008C0C5
:1021F0000DF009C00EF0F90EDBCF06F0FA0EDBCFC2
:1022000007F0FB0EDBCF08F0FC0EDBCF09F0B2ECE1
:102210001EF006C014F007C015F008C016F009C083
:1022200017F0300E1426000E152216221722145015
:1022300003D0DF5004E0300EE66EB1DDE552010E52
:10224000DB04186E196A18BE196818C0E6FF19C0B9
:10225000E6FF0A0EE66EE66A05EC0DF0E552E55281
:10226000E552E55206C014F007C015F008C016F09C
:1022700009C017F0D950F90FE96EFF0EDA20EA6EA7
:1022800006C00BF007C00CF008C00DF009C00EF03E
:10229000EECF06F0EECF07F0EECF08F0EFCF09F06B
:1022A000B2EC1EF005C0EDFF04C0EDFF03C0EDFF72
:1022B00002C0EFFF010EDB0637D7020EE15C02E23F
:1022C000E16AE552E16EE552E7CFD9FF1200D9CFBE
:1022D000E6FFE1CFD9FFFE0EDB50010B0001FB6FE3
:1022E000FC6BFD0EDB500F0BFD6FFE6BFB0EDBCFAF
:1022F000F6FFFC0EDBCFF7FF0800F5500FE0FB0EFA
:10230000DBCFF6FFDB2AFC0EDBCFF7FF01E3DB2A96
:102310000800F550E66E43DDE552E8D7E552E7CF19
:04232000D9FF1200CF
:0C232400D9CFE6FFE1CFD9FFFE0EDBCFE2
:1023300015F0800E15141AE1FD0EDBCF16F0FE0E1F
:10234000DBCF17F0173404E216500708000E1754BD
:102350000DE3FD0EDBCFE9FFFE0EDBCFEAFFDC0E67
:10236000E926010EEA22EF508310836EE552E7CF93
:10237000D9FF1200D9CFE6FFE1CFD9FFFE0EDBCFA8
:1023800015F0800E15141AE1FD0EDBCF16F0FE0ECF
:10239000DBCF17F0173404E216500708000E17546D
:1023A0000DE3FD0EDBCFE9FFFE0EDBCFEAFFDC0E17
:1023B000E926010EEA22EF1C8314836EE552E7CF73
:1023C000D9FF1200D9CFE6FFE1CFD9FFFD0EDBCF59
:1023D000E9FFFE0EDBCFEAFFE40EE926010EEA225A
:1023E000EF0415E1FD0EDBCFE6FFFE0EDBCFE6FFCF
:1023F000C1DFE552E552FD0EDBCFE9FFFE0EDBCF7C
:10240000EAFFE40EE926010EEA22EF6A15D0FD0E7E
:10241000DBCFE6FFFE0EDBCFE6FF84DFE552E552C1
:10242000FD0EDBCFE9FFFE0EDBCFEAFFE40EE9266F
:10243000010EEA22010EEF6EE552E7CFD9FF12003E
:10244000D9CFE6FFE1CFD9FFFE0EDBCF15F0800E2E
:1024500015141AE1FD0EDBCF16F0FE0EDBCF17F0E0
:10246000173404E216500708000E17540DE3FD0E52
:10247000DBCFE9FFFE0EDBCFEAFFDC0EE926010E23
:10248000EA22EF508910806EE552E7CFD9FF1200A3
:10249000D9CFE6FFE1CFD9FFFE0EDBCF15F0800EDE
:1024A00015141AE1FD0EDBCF16F0FE0EDBCF17F090
:1024B000173404E216500708000E17540DE3FD0E02
:1024C000DBCFE9FFFE0EDBCFEAFFDC0EE926010ED3
:1024D000EA22EF1C8914806EE552E7CFD9FF120083
:1024E000D9CFE6FFE1CFD9FFFD0EDB5089CFE7FF63
:1024F000070B04E0E742E79EE806FCE1E750010B2A
:10250000010808E1FD0EDBCFE6FFFE0EDBCFE6FFA4
:10251000BFDF07D0FD0EDBCFE6FFFE0EDBCFE6FF11
:102520008FDFE552E552E552E7CFD9FF1200D9CF50
:10253000E6FFE1CFD9FF3F0EE76EFD0EDBCF14F0D3
:10254000E75014168950166EC00E16161450161049
:10255000806EE552E7CFD9FF12000101DC518410F3
:10256000846E12000101DC1D8414846E1200D9CF28
:10257000E6FFE1CFD9FF020EE126DE6ADD6ADE6A00
:10258000DD6ADECF14F0DDCF15F0FB0EDBCF16F0E9
:10259000FC0EDBCF17F015501718E8AE02D0173439
:1025A00004D01650145C1750155836E2FD0EDBCFE0
:1025B00016F0FE0EDBCF17F0DF5016C014F017C078
:1025C00015F005E0D89015321432E804FBE1010E55
:1025D0001416000E1516010E141807E1155005E12A
:1025E000000EE66EE66A2CDF04D0000EE66EE66AA8
:1025F0004FDFE552E552010EE66EE66A21DFE55255
:10260000E552010EE66EE66A43DFE552E552DF2A47
:10261000010EB7E3DB2AB5D7020EE66EE66A10DFDD
:10262000E552E552020EE66EE66A32DFE552E55209
:10263000020EE15C02E2E16AE552E16EE552E7CFAB
:10264000D9FF1200D9CFE6FFE1CFD9FFFD0EDBCFD6
:1026500014F0FE0EDBCF15F00001800E15141BE107
:10266000FD0EDBCF16F0FE0EDBCF17F0173404E2C1
:1026700016500708000E17540EE3FD0EDBCFE9FFDE
:10268000FE0EDBCFEAFFDC0EE926010EEA22EF5058
:102690000101F411F46FF6C1E6FFF7C1E6FFF4C1E2
:1026A000E6FFF5C1E6FF63DFE552E552E552E5528C
:1026B000E552E7CFD9FF1200D9CFE6FFE1CFD9FF2E
:1026C000FD0EDBCF14F0FE0EDBCF15F00001800E07
:1026D00015141CE1FD0EDBCF16F0FE0EDBCF17F05C
:1026E000173404E216500708000E17540FE3FD0ECE
:1026F000DBCFE9FFFE0EDBCFEAFFDC0EE926010EA1
:10270000EA22EF1C0101F415F46FF56BF6C1E6FF48
:10271000F7C1E6FFF4C1E6FFF5C1E6FF28DFE552A9
:10272000E552E552E552E552E7CFD9FF1200D9CF85
:10273000E6FFE1CFD9FF3F0EE76EFD0EDBCF14F0D1
:10274000E7501416156AC00E0101F415166EFF0E3F
:10275000F515176E14501610F46F15501710F56F0D
:10276000F6C1E6FFF7C1E6FFF4C1E6FFE66EFFDE65
:10277000E552E552E552E552E552E7CFD9FF1200A6
:10278000D9CFE6FFE1CFD9FFFD0EDB50F4C114F045
:10279000F5C115F005E0D89015321432E804FBE1DC
:1027A000010E1416000E1516010E14180AE115502C
:1027B00008E1FD0EDBCFE6FFFE0EDBCFE6FF7CDFA0
:1027C00007D0FD0EDBCFE6FFFE0EDBCFE6FF3ADFE4
:1027D000E552E552E552E7CFD9FF1200D9CFE6FF27
:1027E000E1CFD9FF020EE126DE6ADD6ADE6ADD6A2C
:1027F000DECF14F0DDCF15F0FB0EDBCF16F0FC0EB4
:10280000DBCF17F015501718E8AE02D0173404D0FC
:102810001650145C1750155836E2FD0EDBCF16F03B
:10282000FE0EDBCF17F0DF5016C014F017C015F006
:1028300005E0D89015321432E804FBE1010E1416BD
:10284000000E1516010E141807E1155005E1030ED0
:10285000E66EE66AF5DD04D0030EE66EE66A18DE83
:10286000E552E552040EE66EE66AEADDE552E5520F
:10287000040EE66EE66A0CDEE552E552DF2A010E32
:10288000B7E3DB2AB5D7050EE66EE66AD9DDE55279
:10289000E552050EE66EE66AFBDDE552E552020EF4
:1028A000E15C02E2E16AE552E16EE552E7CFD9FF71
:1028B0001200D9CFE6FFE1CFD9FFFD0EDBCF14F038
:1028C000FE0EDBCF15F00001800E15141BE1FD0E8E
:1028D000DBCF16F0FE0EDBCF17F0173404E21650F4
:1028E0000708000E17540EE3FD0EDBCFE9FFFE0EC6
:1028F000DBCFEAFFDC0EE926010EEA22EF500101F0
:10290000F811F86FFAC1E6FFFBC1E6FFF8C1E6FF78
:10291000F9C1E6FF63DFE552E552E552E552E552C3
:10292000E7CFD9FF1200D9CFE6FFE1CFD9FFFD0EE7
:10293000DBCF14F0FE0EDBCF15F00001800E151476
:102940001CE1FD0EDBCF16F0FE0EDBCF17F01734C7
:1029500004E216500708000E17540FE3FD0EDBCFFC
:10296000E9FFFE0EDBCFEAFFDC0EE926010EEA22CC
:10297000EF1C0101F815F86FF96BFAC1E6FFFBC116
:10298000E6FFF8C1E6FFF9C1E6FF28DFE552E552B0
:10299000E552E552E552E7CFD9FF1200D9CFE6FF65
:1029A000E1CFD9FF3F0EE76EFD0EDBCF14F0E7500D
:1029B0001416156AC00E0101F815166EFF0EF915F2
:1029C000176E14501610F86F15501710F96FFAC1E2
:1029D000E6FFFBC1E6FFF8C1E6FFE66EFFDEE5526B
:1029E000E552E552E552E552E7CFD9FF1200D9CFC3
:1029F000E6FFE1CFD9FFFD0EDB50F8C114F0F9C1BD
:102A000015F005E0D89015321432E804FBE1010E10
:102A10001416000E1516010E14180AE1155008E1DF
:102A2000FD0EDBCFE6FFFE0EDBCFE6FF7CDF07D03F
:102A3000FD0EDBCFE6FFFE0EDBCFE6FF3ADFE55211
:102A4000E552E552E7CFD9FF1200D9CFE6FFE1CF3B
:102A5000D9FF020EE126DE6ADD6ADE6ADD6ADECFBC
:102A600014F0DDCF15F0FB0EDBCF16F0FC0EDBCF44
:102A700017F015501718E8AE02D0173404D01650CE
:102A8000145C1750155836E2FD0EDBCF16F0FE0E23
:102A9000DBCF17F0DF5016C014F017C015F005E0BB
:102AA000D89015321432E804FBE1010E1416000E22
:102AB0001516010E141807E1155005E1000EE66E1B
:102AC000E66A30DC04D0000EE66EE66A53DCE552BE
:102AD000E552010EE66EE66A25DCE552E552010E8E
:102AE000E66EE66A47DCE552E552DF2A010EB7E3FF
:102AF000DB2AB5D7020EE66EE66A14DCE552E55233
:102B0000020EE66EE66A36DCE552E552020EE15C44
:102B100002E2E16AE552E16EE552E7CFD9FF120029
:102B2000D9CFE6FFE1CFD9FFFD0EDBCF14F0FE0ECB
:102B3000DBCF15F00001800E15141BE1FD0EDBCF7D
:102B400016F0FE0EDBCF17F0173404E2165007081C
:102B5000000E17540EE3FD0EDBCFE9FFFE0EDBCFB8
:102B6000EAFFDC0EE926010EEA22EF500101FC111A
:102B7000FC6FFEC1E6FFFFC1E6FFFCC1E6FFFDC141
:102B8000E6FF63DFE552E552E552E552E552E7CF55
:102B9000D9FF1200D9CFE6FFE1CFD9FFFD0EDBCF81
:102BA00014F0FE0EDBCF15F00001800E15141CE1B1
:102BB000FD0EDBCF16F0FE0EDBCF17F0173404E26C
:102BC00016500708000E17540FE3FD0EDBCFE9FF88
:102BD000FE0EDBCFEAFFDC0EE926010EEA22EF1C37
:102BE0000101FC15FC6FFD6BFEC1E6FFFFC1E6FFB6
:102BF000FCC1E6FFFDC1E6FF28DFE552E552E552E4
:102C0000E552E552E7CFD9FF1200D9CFE6FFE1CF79
:102C1000D9FF3F0EE76EFD0EDBCF14F0E750141620
:102C2000156AC00E0101FC15166EFF0EFD15176E1C
:102C300014501610FC6F15501710FD6FFEC1E6FF03
:102C4000FFC1E6FFFCC1E6FFE66EFFDEE552E5529E
:102C5000E552E552E552E7CFD9FF1200D9CFE6FFA2
:102C6000E1CFD9FFFD0EDB50FCC114F0FDC115F022
:102C700005E0D89015321432E804FBE1010E141679
:102C8000000E1516010E14180AE1155008E1FD0E8C
:102C9000DBCFE6FFFE0EDBCFE6FF7CDF07D0FD0ECD
:102CA000DBCFE6FFFE0EDBCFE6FF3ADFE552E55273
:082CB000E552E7CFD9FF120045
:082CB800D9CFE6FFE1CFD9FFFF
:102CC000D59EFD0EDBCF00FFFE0EDBCF01FFD59CB6
:102CD00017681868196A00CF1AF001CF1BF01C6A38
:102CE0001A50175C146E1B501858156E1C5019584A
:102CF000166E0C6A010E0D6E0E6A14C007F015C038
:102D000008F016C009F06AEC1DF00350D66E176883
:102D10001868196A00CF1AF001CF1BF01C6A1A500C
:102D2000175C146E1B501858156E1C501958166EEF
:102D30000C6A010E0D6E0E6A14C007F015C008F083
:102D400016C009F06AEC1DF007C014F008C015F0B9
:102D500009C016F00750D76ED59AD586F28AF2943C
:102D6000F184D58EE552E7CFD9FF1200D59E12002F
:102D700017681868196A00CF1AF001CF1BF01C6A97
:102D80001A50175C146E1B501858156E1C501958A9
:102D9000166E0C6A010E0D6E0E6A14C007F015C097
:102DA00008F016C009F06AEC1DF00350D66E1768E3
:102DB0001868196A00CF1AF001CF1BF01C6A1A506C
:102DC000175C146E1B501858156E1C501958166E4F
:102DD0000C6A010E0D6E0E6A14C007F015C008F0E3
:102DE00016C009F06AEC1DF007C014F008C015F019
:102DF00009C016F00750D76ED58E1200D9CFE6FF66
:102E0000E1CFD9FFCD90FD0EDBCF02FFFE0EDBCF71
:102E100003FF17681868196A02CF1AF003CF1BF076
:102E20001C6A1A50175C146E1B501858156E1C50F3
:102E30001958166E0C6A010E0D6E0E6A14C007F05A
:102E400015C008F016C009F06AEC1DF00750CF6EEF
:102E500017681868196A02CF1AF003CF1BF01C6AB2
:102E60001A50175C146E1B501858156E1C501958C8
:102E7000166E0C6A010E0D6E0E6A14C007F015C0B6
:102E800008F016C009F06AEC1DF003C014F004C08D
:102E900015F005C016F00350CE6E9D809E909F9059
:102EA000CD8ECD8CCD98CD9ACD96CD92CD80E5525C
:102EB000E7CFD9FF120017681868196A02CF1AF015
:102EC00003CF1BF01C6A1A50175C146E1B50185865
:102ED000156E1C501958166E0C6A010E0D6E0E6A96
:102EE00014C007F015C008F016C009F06AEC1DF018
:102EF0000750CF6E17681868196A02CF1AF003CF0F
:102F00001BF01C6A1A50175C146E1B501858156E73
:102F10001C501958166E0C6A010E0D6E0E6A14C004
:102F200007F015C008F016C009F06AEC1DF003C0E8
:102F300014F004C015F005C016F00350CE6ECD801D
:102F40001200CD901200D9CFE6FFE1CFD9FFCA948D
:102F5000CC6AFE0EDB500F01046F056BCB6E9D82B9
:102F60009E929F92CA90CA92CA84E552E7CFD9FF37
:102F7000120004CFCBFFCA841200CA941200D9CF2A
:102F8000E6FFE1CFD9FFB190FD0EDBCF06FFFE0ECD
:102F9000DBCF07FF17681868196A06CF1AF007CF4A
:102FA0001BF01C6A1A50175C146E1B501858156ED3
:102FB0001C501958166E0C6A010E0D6E0E6A14C064
:102FC00007F015C008F016C009F06AEC1DF00750B4
:102FD000B36E17681868196A06CF1AF007CF1BF08E
:102FE0001C6A1A50175C146E1B501858156E1C5032
:102FF0001958166E0C6A010E0D6E0E6A14C007F099
:1030000015C008F016C009F06AEC1DF003C014F0FA
:1030100004C015F005C016F00350B26EA082A19254
:10302000A292B18EB198B19AB192B180E552E7CF38
:10303000D9FF120017681868196A06CF1AF007CF6F
:103040001BF01C6A1A50175C146E1B501858156E32
:103050001C501958166E0C6A010E0D6E0E6A14C0C3
:1030600007F015C008F016C009F06AEC1DF0035017
:10307000B26E17681868196A06CF1AF007CF1BF0EE
:103080001C6A1A50175C146E1B501858156E1C5091
:103090001958166E0C6A010E0D6E0E6A14C007F0F8
:1030A00015C008F016C009F06AEC1DF007C014F056
:1030B00008C015F009C016F00750B36EB1801200B9
:1030C000B19012000F01102B000E11231851105D4A
:1030D0001951115904E3106B116B010E086F1200A6
:1030E0000F01122B000E13231A51125D1B5113599D
:1030F00004E3126B136B010E096F12000F01142B06
:10310000000E15231C51145D1D51155904E3146B59
:10311000156B010E0A6F12000F01162B000E1723FC
:103120001E51165D1F51175904E3166B176B010EE4
:103130000B6F1200D9CFE6FFE1CFD9FFFD0EDBCF39
:1031400018FFFE0EDBCF19FF0F01106B116B086B20
:10315000E552E7CFD9FF1200D9CFE6FFE1CFD9FF83
:10316000FD0EDBCF1AFFFE0EDBCF1BFF050E0D6E33
:103170000E6A1ACF08F01BCF09F044EC1DF008C00E
:103180001AFF09C01BFF0F01126B136B096BE5528D
:10319000E7CFD9FF1200D9CFE6FFE1CFD9FFFD0E6F
:1031A000DBCF1EFFFE0EDBCF1FFF0A0E0D6E0E6A79
:1031B0001ECF08F01FCF09F044EC1DF008C01EFF21
:1031C00009C01FFF0F01166B176B0B6BE552E7CFA2
:0431D000D9FF120011
:0C31D4000F0E946E82681200D9CFE6FF47
:1031E000E1CFD9FF040EE126DE6ADD6ADECF14F0FE
:1031F000DDCF15F0D890155004E6080E145C000ED3
:10320000155840E2DECFE9FFDDCFEAFFD40EE92614
:10321000010EEA22EF50821423E1DECFE9FFDDCF79
:10322000EAFFD890E936EA36AC0EE926010EEA222A
:10323000EECF14F0EFCF15F0010E1426000E15227C
:10324000DECFE9FFDDCFEAFFD890E936EA36AC0EF3
:10325000E926010EEA2214C0EEFF15C0EDFF0DD0E5
:10326000DECFE9FFDDCFEAFFD890E936EA36AC0ED3
:10327000E926010EEA22EE6AED6ADF2A010EB6E3C4
:10328000DB2AB4D7040EE15C02E2E16AE552E16EAA
:10329000E552E7CFD9FF1200D9CFE6FFE1CFD9FF42
:1032A000040EE126DE6ADD6ADECF14F0DDCF15F014
:1032B000D890155004E6040E145C000E155801E376
:1032C00090D0DECFE9FFDDCFEAFFCC0EE926010E7C
:1032D000EA22EF1C826E020EDB6A030EDB6A020E2C
:1032E000DBCF14F0030EDBCF15F0D890155004E6B9
:1032F000040E145C000E15586EE2020EDBCFE9FFDF
:10330000030EDBCFEAFFD00EE926010EEA22EF50D2
:1033100082143FE1DECF18F0DDCF19F0D8901836D7
:103320001936D89018361936020EDB501824E96E7B
:10333000030EDB501920EA6ED890E936EA36AC0E5F
:10334000E926010EEA22EECF16F0EFCF17F0010EBC
:103350001626000E1722DECF14F0DDCF15F0D89020
:1033600014361536D89014361536020EDB50142458
:10337000E96E030EDB501520EA6ED890E936EA3686
:10338000AC0EE926010EEA2216C0EEFF17C0EDFFD3
:103390001BD0DECF14F0DDCF15F0D89014361536E3
:1033A000D89014361536020EDB501424E96E030E45
:1033B000DB501520EA6ED890E936EA36AC0EE926E5
:1033C000010EEA22EE6AED6A020EDB2A030E01E22A
:1033D00086D7DB2A84D7DF2A010E01E265D7DB2AF4
:1033E00063D7040EE15C02E2E16AE552E16EE55268
:1033F000E7CFD9FF1200D9CFE6FFE1CFD9FF040E06
:10340000E126DE6ADD6ADECF14F0DDCF15F0FD0EB9
:10341000DBCF16F0FE0EDBCF17F015501718E8AE15
:1034200002D0173404D01650145C175015581DE202
:10343000020EDB6A030EDB6A020EDBCF14F0030E12
:10344000DBCF15F0D890155004E6EE0E145C000E9C
:10345000155806E2020EDB2A030EEEE3DB2AECD758
:10346000DF2A010ED0E3DB2ACED7040EE15C02E2B4
:10347000E16AE552E16EE552E7CFD9FF1200D9CFFC
:10348000E6FFE1CFD9FF040EE126DE6ADD6ADECF7A
:1034900014F0DDCF15F0D890155004E6040E145C3E
:1034A000000E155875E2DECFE9FFDDCFEAFFCC0E46
:1034B000E926010EEA22EF1C826E020EDB6A030E81
:1034C000DB6A020EDBCF14F0030EDBCF15F0D890D1
:1034D000155004E6040E145C000E15584AE2DECFC7
:1034E00014F0DDCF15F0D89014361536D890143678
:1034F0001536020EDB501424E96E030EDB50152046
:10350000EA6ED890E936EA36AC0EE926010EEA22D8
:10351000EE6AED6A020EDBCFE9FF030EDBCFEAFFB6
:10352000D00EE926010EEA22EF5082141CE1DECF14
:1035300014F0DDCF15F0D89014361536D890143627
:103540001536020EDB501424E96E030EDB501520F5
:10355000EA6ED890E936EA36AC0EE926010EEA2288
:10356000010EEE6EED6A020EDB2A030EAAE3DB2AE1
:10357000A8D78250816EE80EE66E030EE66E3BDF42
:10358000E552E552DF2A010E01E281D7DB2A7FD71F
:10359000040EE15C02E2E16AE552E16EE552E7CF3A
:0435A000D9FF12003D
:0C35A400D9CFE6FFE1CFD9FF040EE126ED
:1035B000DE6ADD6A020EDB6A030EDB6ADE6ADD6A42
:1035C000DECF14F0DDCF15F0D890155004E6070ECD
:1035D000145C000E155801E396D0000EDFCF08F002
:1035E000010EDBCF09F0060E081801E109502EE0AC
:1035F000050E081801E1095023E0040E081801E146
:1036000009501CE0030E081801E1095015E0020EF4
:10361000081801E109500EE0010E081801E10950F7
:1036200007E0085018E1095016E1020EF36E0BD0C6
:10363000030E07D0060E05D0050E03D0040E01D0F0
:10364000010EF36E020EF3CFDBFF02D0020EDB6A37
:10365000030EDB6A0AD0D9CFE9FFDACFEAFF020E08
:10366000EECFDBFF030EEDCFDBFFFD0EDBCF14F063
:10367000FE0EDBCF15F015340CE214500A08000ED4
:10368000155407E20A0EF36EFD0EF3CFDBFFFE0EBC
:10369000DB6AFD0EDBCF14F0FE0EDBCF15F00E0E55
:1036A0001502F3CF15F01402F3CF14F0F4501526E1
:1036B000120E1426010E1522020E086E096ADECFC4
:1036C0000DF0DDCF0EF097EC1DF014500624E96EDE
:1036D00015500720EA6EEE50ED1007E0DECFE6FF52
:1036E000DDCFE6FF90EC15F006D0DECFE6FFDDCFB4
:1036F000E6FFCAEC15F0E552E552DF2A010E01E2C1
:103700005FD7DB2A5DD7040EE15C02E2E16AE55295
:10371000E16EE552E7CFD9FF1200D9CFE6FFE1CF46
:10372000D9FF020EE126DE6ADD6ADE6ADD6ADECFDF
:1037300014F0DDCF15F0D890155004E6040E145C9B
:10374000000E155818E2DECFE9FFDDCFEAFFD89072
:10375000E936EA36000EE926010EEA22EECFE6FF50
:10376000EFCFE6FFBAEC11F0E552E552DF2A010E89
:10377000DEE3DB2ADCD7FD0EDBCFE9FFFE0EDBCF7D
:10378000EAFFD890E936EA36080EE926010EEA2269
:10379000EECFE6FFEFCFE6FF05DFE552E552FD0E87
:1037A000DBCFE9FFFE0EDBCFEAFFD890E936EA3641
:1037B000000EE926010EEA22EECFE6FFEFCFE6FF8C
:1037C00092EC11F0E552E552020EE15C02E2E16A90
:1037D000E552E16EE552E7CFD9FF1200D9CFE6FFFF
:1037E000E1CFD9FFFD0EDBCF08F1FE0EDBCF09F1F3
:1037F0000A0E0D6E0E6A08C108F009C109F044EC0A
:103800001DF008C008F109C009F1FD0EDBCF0AF177
:10381000FE0EDBCF0BF10A0E0D6E0E6A0AC108F028
:103820000BC109F044EC1DF004C00AF105C00BF116
:10383000FB0EDBCF0CF1FC0EDBCF0DF10A0E0D6E93
:103840000E6A0CC108F00DC109F044EC1DF008C06F
:103850000CF109C00DF1FB0EDBCF0EF1FC0EDBCF3E
:103860000FF10A0E0D6E0E6A0EC108F00FC109F0BD
:1038700044EC1DF004C00EF105C00FF1E552E7CF96
:10388000D9FF1200010110C114F011C115F0102B65
:10389000000E112314C0E6FF15C0E6FF3EDFE5521F
:1038A000E552040E010111AF02D0D89003D0105D93
:1038B000000E115902E3106B116B1200ADEC12F007
:0438C000B2EF12F061
:0C38C400F28ED08EF28C1200F19CF29279
:1038D000F2881200D8CFE4FFE0CFE4FFE46EDACF45
:1038E000E4FFE2CFDAFFE9CFE4FFEACFE4FFF6CF6F
:1038F000E4FFF7CFE4FFF5CFE4FFF3CFE4FFF4CF2D
:10390000E4FFFACFE4FF00EE00F0140EE80403E356
:10391000EECFE4FFFBD700EE14F00A0EE80403E359
:10392000EECFE4FFFBD7E652F2A407D0B6EC16F0D8
:10393000F294B8EC16F062EC18F09EA007D0A1EC5F
:1039400017F09E905BEC17F070EC18F0A1A207D076
:1039500060EC18F0A1921AEC18F08CEC18F0F2B2AE
:10396000F2929EBA9E9AE55200EE1DF00A0EE8040D
:1039700003E3E5CFEDFFFBD700EE13F0140EE804F0
:1039800003E3E5CFEDFFFBD7E5CFFAFFE5CFF4FF8B
:10399000E5CFF3FFE5CFF5FFE5CFF7FFE5CFF6FF86
:1039A000E5CFEAFFE5CFE9FFE5CFDAFFE550E5CF68
:1039B000E0FFE5CFD8FF1000DACFE4FFE2CFDAFF77
:1039C000E9CFE4FFEACFE4FFF6CFE4FFF7CFE4FF6F
:1039D000F5CFE4FFF3CFE4FFF4CFE4FFFACFE4FF49
:1039E00000EE00F0140EE80403E3EECFE4FFFBD793
:1039F00000EE14F00A0EE80403E3EECFE4FFFBD779
:103A0000E652F2A407D0B6EC16F0F294B8EC16F039
:103A100062EC18F09EA007D0A1EC17F09E905BEC32
:103A200017F070EC18F0A1A207D060EC18F0A1928A
:103A30001AEC18F08CEC18F0F2B2F2929EBA9E9A40
:103A4000E55200EE1DF00A0EE80403E3E5CFEDFFBA
:103A5000FBD700EE13F0140EE80403E3E5CFEDFF0F
:103A6000FBD7E5CFFAFFE5CFF4FFE5CFF3FFE5CFD6
:103A7000F5FFE5CFF7FFE5CFF6FFE5CFEAFFE5CFAE
:083A8000E9FFE5CFDAFF1100B8
:083A8800006A0EAE4DEF1DF0C7
:103A90000D6C0E1EE86A0E22001E09AE55EF1DF0D9
:103AA000086C091EE86A0922001EF3EC1EF009BE2C
:103AB00065EF1DF000AE000C086C091EE86A0922D3
:103AC000046C051EE86A0522000C00BE5CEF1DF0C8
:103AD0000188FF0C006A0EAE75EF1DF00C6C0D1E18
:103AE0000E1EE86A0D220E22001E09AE7FEF1DF0A9
:103AF000076C081E091EE86A08220922001ED6EC7F
:103B00001EF009BE92EF1DF000AE000C076C081EFF
:103B1000091EE86A08220922036C041E051E0422FD
:103B20000522000C00BE86EF1DF00188FF0C09C0C5
:103B300013F008C012F008500D02F4CF07F0F3CFD5
:103B400006F009500E02F4CF09F0F3CF08F00D0291
:103B5000F3500726F4500822E86A092212500E0298
:103B6000F3500726F4500822E86A09220EAEBDEF92
:103B70001DF01250085E1350095A13AE000C0D5080
:083B8000085E0E50095A000C0A
:083B880020005F002020202036
:103B9000004D6F64652035205345542056414E47F3
:103BA00032004441205345542056414E4732004490
:103BB00041205345542058414E483200444120533F
:103BC00045542056414E473100444120534554202E
:103BD00058414E4831004D6F6465203420534554A0
:103BE0002056414E4732004D6F64652034205345C6
:103BF000542058414E4832004D6F646520332053A5
:103C000045542056414E4731004D6F6465203220A7
:103C10005345542058414E4831004D6F6465203162
:103C20002056414E4720444F004D6F64652031209F
:103C300058414E4820444F004D6F64652031204468
:103C40004F2056414E47004D6F6465203120444F50
:063C50002058414E48001F
:0A3C56001E0EF66E000EF76E000E53
:103C6000F86E0F010900F550256F0900F550266F19
:103C700003E1256701D03DD00900F550206F090010
:103C8000F550216F0900F550226F09000900F55029
:103C9000E96E0900F550EA6E090009000900F550C7
:103CA000236F0900F550246F09000900F6CF27FFA4
:103CB000F7CF28FFF8CF29FF20CFF6FF21CFF7FF5E
:103CC00022CFF8FF0F01235302E1245307E009003C
:103CD000F550EE6E2307F8E22407F9D727CFF6FF59
:103CE00028CFF7FF29CFF8FF0F012507000E265B2D
:043CF000BFD7120028
:0C3CF40006500B02F3CF02F0F4CF03F0F7
:103D00000C02F3500326000EF420046E06500D0240
:103D1000F3500426000EF420056E06500E02F350F8
:103D2000052607500B02F3500326F4500422000E20
:103D3000052207500C02F3500426F45005220750C8
:103D40000D02F350052608500B02F3500426F450E0
:103D5000052208500C02F350052609500B02F350BF
:043D60000526120022
:0C3D6400056A046A036A026A200EE76E1A
:103D7000D89006360736083609360236033604363A
:103D800005360B50025C0C5003580D5004580E5071
:103D9000055809E30B50025E0C50035A0D50045AAB
:0C3DA0000E50055A062AE72EE4D7120048
:043DAC00056A046A36
:103DB000036A180EE76ED8900736083609360336C0
:103DC000043605360C50035C0D5004580E5005584F
:103DD00007E30C50035E0D50045A0E50055A072A93
:063DE000E72EEAD71200F5
:0A3DE600056A046A100EE76ED8901B
:103DF00008360936043605360D50045C0E50055859
:103E000005E30D50045E0E50055A082AE72EF0D740
:023E100012009E
:0E3E1200800EF36E00EE00F00F0E01D81200CD
:103E2000EA6002D0EE6AFCD7F350E9601200EE6A55
:023E3000FCD7BD
:0E3E32001EEE00F02EEE00F0F86A019C2BEC64
:0E3E40001EF003EC00F03AEC00F0FBD712008D
:023E4E00000072
:103E50000000000000000000000000000000000062
:0E3E6000000000000000010001000100010050
:023E6E0003004F
:103E70000400050006000100020004000800000024
:103E80000000000000000000000000000100010030
:103E9000000000000100010001000100000000001E
:103EA0000100000000000100000000000000000010
:103EB00000000100010000000100000000000100FE
:103EC00001000000000000000100000000000100EF
:103ED00000000000000001000000000000000000E1
:103EE00000000000000000000100010001000100CE
:103EF00000000000000000000000000000000000C2
:103F000000000000000001000000000001000100AE
:0A3F100001000100010001000100A2
:063F1A0001020408102062
:103F200040800000000000000000000000000000D1
:0E3F3000000000000600000004000000070072
:023F3E00000180
:103F4000030003000200020003000300020002005D
:083F5000010000000000000068
:083F5800000000000000000061
:103F60001010101010101010181818181818181811
:103F70001C1C1C1C1C1C1C1C1E1E1E1E1E1E1E1E71
:103F80001F1F1F1F1F1F1F1F000000000000000039
:103F90000000000000000000000000000000000021
:103FA0000000000000000000000000000000000011
:093FB00000000000000000000008
:073FB9000000000000000001
:103FC00000000000000000000000000000000000F1
:103FD00000000000000000000010204080010204EA
:093FE000080102040810204080D1
:020000040030CA
:0100010002FC
:0100020003FA
:010003001EDE
:010005008179
:010006008178
:010008000FE8
:01000900C036
:01000A000FE6
:01000B00E014
:01000C000FE4
:01000D0040B2
:00000001FF
