:020000040000FA
:06000000FBEF21F01200ED
:020006001200E6
:060008008DEF1FF0120055
:02000E000000F0
:020010000000EE
:060018001BEF1FF01200B7
:02001E000700D9
:1000200079450000AC010000300000000E00000027
:10003000FB000000040000001845000080000000E4
:100040006100000002450000E10000001600000011
:10005000DE440000DC010000240000003244000007
:1000600000010000AC00000012440000000F00007E
:04007000200000006C
:0C00740058D8A7D80F01095103E0096B10
:10008000F3EC1EF00F010B51F7E00B6BFDEC1BF0D6
:1000900071EC08F054EC0BF0A8EC11F0EDD7D9CFCF
:1000A000E6FFE1CFD9FF040EE126DE6ADD6ADECF8E
:1000B00014F0DDCF15F0FD0EDBCF16F0FE0EDBCF1A
:1000C00017F015501718E8AE02D0173404D01650A8
:1000D000145C175015581DE2020EDB6A030EDB6A32
:1000E000020EDBCF14F0030EDBCF15F0D8901550C5
:1000F00004E6EE0E145C000E155806E2020EDB2A32
:10010000030EEEE3DB2AECD7DF2A010ED0E3DB2A75
:10011000CED7040EE15C02E2E16AE552E16EE552FF
:10012000E7CFD9FF120079EC11F0936A956A926AD1
:10013000966A836AD9EC0DF0E668E6681EEC16F064
:10014000E552E55213EC1FF0E80EE66E030EE66E84
:10015000A6DFE552E552000EE66EE66A7DEC17F08A
:10016000E552E552570EE66E120EE66E0DEC19F0F2
:10017000E552E552570EE66E120EE66EAFEC19F040
:10018000E552E552660EE66EB70EE66E70EC1AF0BA
:10019000E552E552E80EE66E030EE66E4BEC1BF000
:1001A000E552E552E80EE66E030EE66E5DEC1BF0DE
:1001B000E552E552320EE66EE66A7CEC1BF0E55243
:1001C000E5529BEF1BF079EC11F00001F46BF56B3D
:1001D000070EE11901E1E25125E0060EE11901E106
:1001E000E25112E0010EE1192BE1E25129E10A0E80
:1001F000E66E410EE66EE66AE66AEEEC13F0E55254
:10020000E552E552E55233D0FB0EE66E400EE66E47
:10021000E66AE66AEEEC13F0E552E552E552E55285
:10022000050E1BD0EC0EE66E400EE66EE66AE66A40
:10023000EEEC13F0E552E552E552E552080E0DD012
:100240000A0EE66E410EE66EE66AE66AEEEC13F022
:10025000E552E552E552E552030E0001E36FE46B0F
:10026000E56FE66B020EE76FE86BE96FEA6BE3C0E0
:10027000EBF0E4C0ECF0E7C0EFF0E8C0F0F0E5C070
:10028000EDF0E6C0EEF0E9C0F1F0EAC0F2F00001F6
:10029000010EF36FE80EE66E030EE66E4BEC1BF0FC
:1002A000E552E552DE0EE66EE6681EEC16F0E5520B
:1002B000E5520001F451E55D146EE651F555156EF9
:1002C00014C0E6FFE66EE551E925186EE651EA2115
:1002D000196EF451185C166EF5511958176E16C048
:1002E000E6FFE66E81DAE552E552E552E55212008C
:1002F0000001F351020A01E1DCD1020A01E13DD122
:10030000030A01E19FD0020A01E012000F01085127
:1003100001E169D20001F42B000EF5230F01086BF7
:10032000070E0001E11901E1E25112E0060EE119A8
:1003300001E1E25109E0010EE11916E1E25114E197
:100340000A0EE66E410E07D0FB0EE66E400E03D09D
:10035000EC0EE66E400EE66EE66AE66AEEEC13F030
:10036000E552E552E552E5520001F451E55D146EA7
:10037000E651F555156E14C0E6FFE66EE551E92528
:10038000186EE651EA21196EF451185C166EF5519B
:100390001958176E16C0E6FFE66E26DAE552E552EA
:1003A000E552E5520001E551F4194BE1E651F5192A
:1003B00001E019D2EE0EE66EE6681EEC16F0E5528C
:1003C000E5520001030EF36FF46BF56B070EE119B4
:1003D00001E1E25112E0060EE11901E1E25109E00A
:1003E000010EE11916E1E25114E1DD0EE66E400E58
:1003F00007D0CE0EE66E400E03D0BF0EE66E400E66
:10040000E66EE66AE66AEEEC13F0E552E552E55276
:10041000E5520001F451E95D146EEA51F555156E8F
:1004200014C0E6FFE66EF451E95D166EEA51F5552B
:10043000176E16C0E6FFE66ED7D9E552E552E552D3
:10044000E55212000F01085101E1CDD10001F42B5A
:10045000000EF5230F01086B070E0001E11901E101
:10046000E25112E0060EE11901E1E25109E0010E4C
:10047000E11916E1E25114E1DD0EE66E400E07D0FF
:10048000CE0EE66E400E03D0BF0EE66E400EE66E58
:10049000E66AE66AEEEC13F0E552E552E552E55203
:1004A0000001F451E95D146EEA51F555156E14C062
:1004B000E6FFE66EF451E95D166EEA51F555176EEA
:1004C00016C0E6FFE66E90D9E552E552E552E552D8
:1004D0000001E951F41950E1EA51F51901E083D125
:1004E000F46BF56BF36BF30EE66EE6681EEC16F03C
:1004F000E552E552070E0001E11901E1E25112E077
:10050000060EE11901E1E25109E0010EE11916E1DF
:10051000E25114E1B00EE66E400E07D0A10EE66E79
:10052000400E03D0920EE66E400EE66EE66AE66A74
:10053000EEEC13F0E552E552E552E5520001E351CD
:10054000E725166EE451E821176EF451165C146E1F
:10055000F5511758156E14C0E6FFE66EF451E35DD1
:10056000186EE451F555196E18C0E6FFE66E3CD9D9
:10057000E552E552E552E55212000F01085101E142
:1005800032D10001F42B000EF5230F01086B070E8A
:100590000001E11901E1E25112E0060EE11901E169
:1005A000E25109E0010EE11916E1E25114E1B00E49
:1005B000E66E400E07D0A10EE66E400E03D0920EFE
:1005C000E66E400EE66EE66AE66AEEEC13F0E55281
:1005D000E552E552E5520001E351E725166EE4517C
:1005E000E821176EF451165C146EF5511758156E0C
:1005F00014C0E6FFE66EF451E35D186EE451F55564
:10060000196E18C0E6FFE66EEFD8E552E552E552E6
:10061000E5520001E351F4194BE1E451F51901E011
:10062000E2D0F50EE66EE6681EEC16F0E552E552F5
:100630000001020EF36FF46BF56B070EE11901E197
:10064000E25112E0060EE11901E1E25109E0010E6A
:10065000E11916E1E25114E1830EE66E400E07D077
:10066000740EE66E400E03D0650EE66E400EE66E2A
:10067000E66AE66AEEEC13F0E552E552E552E55221
:100680000001F451E75D146EE851F555156E14C084
:10069000E6FFE66EF451E75D166EE851F555176E0C
:1006A00016C0E6FFE66EA0D8E552E552E552E552E7
:1006B00012000F01085101E196D00001F42B000E49
:1006C000F5230F01086B070E0001E11901E1E2516A
:1006D00012E0060EE11901E1E25109E0010EE11913
:1006E00016E1E25114E1830EE66E400E07D0740E5F
:1006F000E66E400E03D0650EE66E400EE66EE66ACC
:10070000E66AEEEC13F0E552E552E552E5520001DF
:10071000F451E75D146EE851F555156E14C0E6FF0F
:10072000E66EF451E75D166EE851F555176E16C08A
:10073000E6FFE66E59D8E552E552E552E552000172
:10074000E751F41950E1E851F5194DE1F46BF56BFF
:10075000010EF36FDE0EE66EE6681EEC16F0E55253
:10076000E552070E0001E11901E1E25112E0060E27
:10077000E11901E1E25109E0010EE11916E1E2514E
:1007800014E10A0EE66E410E07D0FB0EE66E400E37
:1007900003D0EC0EE66E400EE66EE66AE66AEEEC1C
:1007A00013F0E552E552E552E5520001F451E55DE2
:1007B000146EE651F555156E14C0E6FFE66EE55170
:1007C000E925186EE651EA21196EF451185C166E8F
:1007D000F5511958176E16C0E6FFE66E05D8E552BA
:1007E000E552E552E5521200D9CFE6FFE1CFD9FF3D
:1007F000FB0EDBCFE6FFFC0EDBCFE6FFFD0EDBCF13
:10080000E6FFFE0EDBCFE6FF9FEC1EF0E552E55261
:10081000E552E552FD0EDBCF14F0FE0EDBCF15F0F6
:100820000A0E0D6E0E6A14C008F015C009F08DECAA
:1008300020F008C014F009C015F0166A176A15AE4A
:1008400002D01668176814C0E6FF15C0E6FF16C090
:10085000E6FF17C0E6FF070EE66E010EE66EC7EC78
:1008600012F0186E060EE15E1850FD0EDBCF14F08C
:10087000FE0EDBCF15F00A0E0D6E0E6A14C008F0E6
:1008800015C009F08DEC20F004C014F005C015F07F
:10089000166A176A15AE02D01668176814C0E6FF0C
:1008A00015C0E6FF16C0E6FF17C0E6FF080EE66EAD
:1008B000010EE66EC7EC12F0186E060EE15E1850DF
:1008C000FB0EDBCF14F0FC0EDBCF15F00A0E0D6E25
:1008D0000E6A14C008F015C009F08DEC20F008C0B5
:1008E00014F009C015F0166A176A15AE02D0166822
:1008F000176814C0E6FF15C0E6FF16C0E6FF17C074
:10090000E6FF0C0EE66E010EE66EC7EC12F0186EF6
:10091000060EE15E1850FB0EDBCF14F0FC0EDBCFB1
:1009200015F00A0E0D6E0E6A14C008F015C009F01D
:100930008DEC20F004C014F005C015F0166A176A9B
:1009400015AE02D01668176814C0E6FF15C0E6FFA2
:1009500016C0E6FF17C0E6FF0D0EE66E010EE66E4E
:10096000C7EC12F0186E060EE15E1850E552E7CFA4
:10097000D9FF1200D9CFE6FFE1CFD9FFFD0EDBCFC3
:1009800014F0FE0EDBCF15F00A0E0D6E0E6A14C0C9
:1009900008F015C009F08DEC20F008C014F009C073
:1009A00015F0166A176A15AE02D01668176814C0DB
:1009B000E6FF15C0E6FF16C0E6FF17C0E6FF020E11
:1009C000E66E010EE66EC7EC12F0186E060EE15EE2
:1009D0001850FD0EDBCF14F0FE0EDBCF15F00A0E23
:1009E0000D6E0E6A14C008F015C009F08DEC20F0F1
:1009F00004C014F005C015F0166A176A15AE02D0CF
:100A00001668176814C0E6FF15C0E6FF16C0E6FFBB
:100A100017C0E6FF030EE66E010EE66EC7EC12F09D
:100A2000186E060EE15E1850FB0EDBCF14F0FC0EC4
:100A3000DBCF15F00A0E0D6E0E6A14C008F015C05B
:100A400009F08DEC20F008C014F009C015F0166A0A
:100A5000176A15AE02D01668176814C0E6FF15C0F5
:100A6000E6FF16C0E6FF17C0E6FF070EE66E010EB2
:100A7000E66EC7EC12F0186E060EE15E1850FB0E23
:100A8000DBCF14F0FC0EDBCF15F00A0E0D6E0E6AF4
:100A900014C008F015C009F08DEC20F004C014F06B
:100AA00005C015F0166A176A15AE02D016681768E9
:100AB00014C0E6FF15C0E6FF16C0E6FF17C0E6FF4C
:100AC000080EE66E010EE66EC7EC12F0186E060E0A
:100AD000E15E1850F90EDBCF14F0FA0EDBCF15F003
:100AE0000A0E0D6E0E6A14C008F015C009F08DECE8
:100AF00020F008C014F009C015F0166A176A15AE88
:100B000002D01668176814C0E6FF15C0E6FF16C0CD
:100B1000E6FF17C0E6FF0C0EE66E010EE66EC7ECB0
:100B200012F0186E060EE15E1850F90EDBCF14F0CD
:100B3000FA0EDBCF15F00A0E0D6E0E6A14C008F027
:100B400015C009F08DEC20F004C014F005C015F0BC
:100B5000166A176A15AE02D01668176814C0E6FF49
:100B600015C0E6FF16C0E6FF17C0E6FF0D0EE66EE5
:100B7000010EE66EC7EC12F0186E060EE15E18501C
:100B8000E552E7CFD9FF1200D9CFE6FFE1CFD9FF79
:100B9000FD0EDBCF14F0FE0EDBCF15F00A0E0D6E4E
:100BA0000E6A14C008F015C009F08DEC20F008C0E2
:100BB00014F009C015F0166A176A15AE02D016684F
:100BC000176814C0E6FF15C0E6FF16C0E6FF17C0A1
:100BD000E6FFE66A010EE66EC7EC12F0186E060E2E
:100BE000E15E1850FD0EDBCF14F0FE0EDBCF15F0EA
:100BF0000A0E0D6E0E6A14C008F015C009F08DECD7
:100C000020F004C014F005C015F0166A176A15AE7E
:100C100002D01668176814C0E6FF15C0E6FF16C0BC
:100C2000E6FF17C0E6FF010EE66EE66EC7EC12F0B7
:100C3000186E060EE15E1850FB0EDBCF14F0FC0EB2
:100C4000DBCF15F00A0E0D6E0E6A14C008F015C049
:100C500009F08DEC20F008C014F009C015F0166AF8
:100C6000176A15AE02D01668176814C0E6FF15C0E3
:100C7000E6FF16C0E6FF17C0E6FF040EE66E010EA3
:100C8000E66EC7EC12F0186E060EE15E1850FB0E11
:100C9000DBCF14F0FC0EDBCF15F00A0E0D6E0E6AE2
:100CA00014C008F015C009F08DEC20F004C014F059
:100CB00005C015F0166A176A15AE02D016681768D7
:100CC00014C0E6FF15C0E6FF16C0E6FF17C0E6FF3A
:100CD000050EE66E010EE66EC7EC12F0186E060EFB
:100CE000E15E1850F90EDBCF14F0FA0EDBCF15F0F1
:100CF0000A0E0D6E0E6A14C008F015C009F08DECD6
:100D000020F008C014F009C015F0166A176A15AE75
:100D100002D01668176814C0E6FF15C0E6FF16C0BB
:100D2000E6FF17C0E6FF080EE66E010EE66EC7ECA2
:100D300012F0186E060EE15E1850F90EDBCF14F0BB
:100D4000FA0EDBCF15F00A0E0D6E0E6A14C008F015
:100D500015C009F08DEC20F004C014F005C015F0AA
:100D6000166A176A15AE02D01668176814C0E6FF37
:100D700015C0E6FF16C0E6FF17C0E6FF090EE66ED7
:100D8000010EE66EC7EC12F0186E060EE15E18500A
:100D9000F70EDBCF14F0F80EDBCF15F00A0E0D6E58
:100DA0000E6A14C008F015C009F08DEC20F008C0E0
:100DB00014F009C015F0166A176A15AE02D016684D
:100DC000176814C0E6FF15C0E6FF16C0E6FF17C09F
:100DD000E6FF0C0EE66E010EE66EC7EC12F0186E22
:100DE000060EE15E1850F70EDBCF14F0F80EDBCFE5
:100DF00015F00A0E0D6E0E6A14C008F015C009F049
:100E00008DEC20F004C014F005C015F0166A176AC6
:100E100015AE02D01668176814C0E6FF15C0E6FFCD
:100E200016C0E6FF17C0E6FF0D0EE66E010EE66E79
:100E3000C7EC12F0186E060EE15E1850E552E7CFCF
:100E4000D9FF1200D9CFE6FFE1CFD9FFFD0EDBCFEE
:100E500008F0FE0EDBCF09F00A0E081801E1095078
:100E600001E11CD1090E081801E1095001E110D17E
:100E7000080E081801E1095001E104D10B0E081811
:100E800001E1095001E1F8D0070E081801E109500D
:100E900001E1E9D0060E081801E1095001E1E3D0B3
:100EA000050E081801E1095001E1A7D0040E081849
:100EB00001E1095070E0030E081801E1095039E022
:100EC000020E081801E1095008E0010E081801E0BF
:100ED00004D1095001E001D1C6D079EC11F0540ED3
:100EE000E66E400EE66EE66AE66AEEEC13F0E55258
:100EF000E552E552E552E9C0E6FFEAC0E6FFE5C08B
:100F0000E6FFE6C0E6FFE7C0E6FFE8C0E6FFE3C0B5
:100F1000E6FFE4C0E6FF38DE146E080EE15E145012
:100F2000E3C0E6FFE4C0E6FFE3C0E6FFE4C0E6FF9F
:100F3000C8D079EC11F0430EE66E400EE66EE66A1C
:100F4000E66AEEEC13F0E552E552E552E552E9C0EF
:100F5000E6FFEAC0E6FFE5C0E6FFE6C0E6FFE7C061
:100F6000E6FFE8C0E6FFE3C0E6FFE4C0E6FF0CDE14
:100F7000146E080EE15E1450E668E6681EEC16F08A
:100F8000E552E552E7C0E6FFE8C0E6FFE7C0E6FF4E
:100F9000E8C0E6FF63D079EC11F0320EE66E400E49
:100FA000E66EE66AE66AEEEC13F0E552E552E552CB
:100FB000E552E9C0E6FFEAC0E6FFE5C0E6FFE6C0AD
:100FC000E6FFE7C0E6FFE8C0E6FFE3C0E6FFE4C0F7
:100FD000E6FFDADD146E080EE15E1450E668E6689E
:100FE0001EEC16F0E552E552E5C0E6FFE6C0E6FF6E
:100FF000E5C0E6FFE6C0E6FF31D079EC11F0210E46
:10100000E66E400EE66EE66AE66AEEEC13F0E55236
:10101000E552E552E552E9C0E6FFEAC0E6FFE5C069
:10102000E6FFE6C0E6FFE7C0E6FFE8C0E6FFE3C094
:10103000E6FFE4C0E6FFA8DD146E080EE15E145082
:10104000E668E6681EEC16F0E552E552E5C0E6FFFC
:10105000E6C0E6FFE9C0E6FFEAC0E6FF9FEC1EF04F
:10106000E552E55238D0E668E6681EEC16F0E55227
:10107000E552E3EC00F031D079EC11F0180EE66E99
:10108000400E11D079EC11F0110EE66E400E0BD02F
:1010900079EC11F0080EE66E400E05D079EC11F0F7
:1010A000FF0EE66E3F0EE66EE66AE66AEEEC13F0C1
:1010B000E552E552E552E552000EE66EE66AE66E4E
:1010C000E66A9FEC1EF0E552E552E552E552E6680D
:1010D000E6681EEC16F0E552E552E552E7CFD9FF7F
:1010E00012000101010EBC1901E1BD5105E0140E11
:1010F000BC5D000EBD5915E30001060EE11904E1C7
:10110000E25102E1070E43D0070EE11904E1E2517A
:1011100002E10B0E3CD00B0EE11901E1E251060E8B
:1011200036D0010EBE1901E1BF5105E0140EBE5DBF
:10113000000EBF5902E3080E17D0010EC01901E1DD
:10114000C15105E0140EC05D000EC15902E3090E45
:101150000BD0010EC21901E1C35105E0140EC25DAE
:10116000000EC35903E30A0E000111D0010EB41999
:1011700001E1B55105E0140EB45D000EB5592AE346
:101180000001050EE11906E1E25104E1010EE16FF3
:10119000E26B18D0E23513E2E1510508000EE2558A
:1011A0000EE2010EE16FE26B030EE36FE46BE56F9D
:1011B000E66B020EE76FE86BE96FEA6B03D0E12B99
:1011C000000EE223E1C0E6FFE2C0E6FF3BDEE552AF
:1011D000E5521200010EB61901E1B75106E0140EF6
:1011E000B65D000EB75901E2E4D0050E0001E11929
:1011F00001E1E25101E1A6D0040EE11901E1E25161
:101200006BE0030EE11901E1E25136E0020EE11953
:1012100001E1E25101E01200EBC014F0ECC015F066
:10122000EB2B000EEC23D890155004E6630E145CF3
:10123000000E155803E3010EEB6FEC6BE9C0E6FFFF
:10124000EAC0E6FFE5C0E6FFE6C0E6FFE7C0E6FF6E
:10125000E8C0E6FFEBC0E6FFECC0E6FF95DC146EED
:10126000080EE15E1450EBC0E6FFECC0E6FFEBC0F9
:10127000E6FFECC0E6FF5FD0EFC014F0F0C015F061
:10128000EF2B000EF023D890155004E6630E145C8B
:10129000000E155803E3010EEF6FF06BE9C0E6FF97
:1012A000EAC0E6FFE5C0E6FFE6C0E6FFEFC0E6FF06
:1012B000F0C0E6FFE3C0E6FFE4C0E6FF65DC146EC5
:1012C000080EE15E1450EFC0E6FFF0C0E6FFEFC08D
:1012D000E6FFF0C0E6FF2FD0EDC014F0EEC015F031
:1012E000ED2B000EEE23D890155004E6630E145C2F
:1012F000000E155803E3010EED6FEE6BE9C0E6FF3B
:10130000EAC0E6FFEDC0E6FFEEC0E6FFE7C0E6FF9D
:10131000E8C0E6FFE3C0E6FFE4C0E6FF35DC146E9C
:10132000080EE15E1450EDC0E6FFEEC0E6FFEDC032
:10133000E6FFEEC0E6FF9FEC1EF0E552E552E552F7
:10134000E5521200F1C014F0F2C015F0F12B000EBE
:10135000F223D890155004E6630E145C000E155865
:1013600003E3010EF16FF26BF1C0E6FFF2C0E6FF9E
:10137000F1C0E6FFF2C0E6FF9FEC1EF0E552E55239
:10138000E552E552F1C0E6FFF2C0E6FFE5C0E6FF38
:10139000E6C0E6FFE7C0E6FFE8C0E6FFE3C0E6FF21
:1013A000E4C0E6FFC4EC05F0146E080EE15E1450D4
:1013B0001200010EB81901E1B95106E0140EB85D32
:1013C000000EB95901E2E3D0050E0001E11901E177
:1013D000E25101E1A6D0040EE11901E1E2516BE016
:1013E000030EE11901E1E25136E0020EE11901E1DB
:1013F000E25101E01200EBC014F0ECC015F0EB0775
:10140000000EEC5B153404E214500108000E155474
:1014100003E3630EEB6FEC6BE9C0E6FFEAC0E6FFA7
:10142000E5C0E6FFE6C0E6FFE7C0E6FFE8C0E6FF8E
:10143000EBC0E6FFECC0E6FFC4EC05F0146E080E4E
:10144000E15E1450EBC0E6FFECC0E6FFEBC0E6FF48
:10145000ECC0E6FF5FD0EFC014F0F0C015F0EF076E
:10146000000EF05B153404E214500108000E155410
:1014700003E3630EEF6FF06BE9C0E6FFEAC0E6FF3F
:10148000E5C0E6FFE6C0E6FFEFC0E6FFF0C0E6FF1E
:10149000E3C0E6FFE4C0E6FFC4EC05F0146E080EFE
:1014A000E15E1450EFC0E6FFF0C0E6FFEFC0E6FFDC
:1014B000F0C0E6FF2FD0EDC014F0EEC015F0ED0740
:1014C000000EEE5B153404E214500108000E1554B2
:1014D00003E3630EED6FEE6BE9C0E6FFEAC0E6FFE3
:1014E000EDC0E6FFEEC0E6FFE7C0E6FFE8C0E6FFBE
:1014F000E3C0E6FFE4C0E6FFC4EC05F0146E080E9E
:10150000E15E1450EDC0E6FFEEC0E6FFEDC0E6FF81
:10151000EEC0E6FF9FEC1EF0E552E552E552E552C3
:101520001200F1C014F0F2C015F0F107000EF25BEA
:10153000153404E214500108000E155403E3630E41
:10154000F16FF26BF1C0E6FFF2C0E6FFF1C0E6FF1B
:10155000F2C0E6FF9FEC1EF0E552E552E552E5527F
:10156000F1C0E6FFF2C0E6FFE5C0E6FFE6C0E6FF39
:10157000E7C0E6FFE8C0E6FFE3C0E6FFE4C0E6FF41
:10158000C4EC05F0146E080EE15E14501200010E5A
:10159000BA1901E1BB5106E0140EBA5D000EBB5949
:1015A00001E281D0050E0001E11901E1E2514BE0B9
:1015B000040EE11901E1E25115E0030EE11901E128
:1015C000E2510BE0020EE11901E1E25101E01200EB
:1015D000EBC0E3F0ECC0E4F009D0EFC0E7F0F0C0FE
:1015E000E8F004D0EDC0E5F0EEC0E6F079EC11F0E3
:1015F000F30EE66E3F0EE66EE66AE66AEEEC13F078
:10160000E552E552E552E552E80EE66E030EE66E4F
:101610004BEC1BF0E552E552E9C0E6FFEAC0E6FFFD
:10162000E5C0E6FFE6C0E6FFE7C0E6FFE8C0E6FF8C
:10163000E3C0E6FFE4C0E6FFC4EC05F0146E080E5C
:10164000E15E14501200F1C0E9F0F2C0EAF079EC6A
:1016500011F0F30EE66E3F0EE66EE66AE66AEEEC19
:1016600013F0E552E552E552E552E80EE66E030E40
:10167000E66E4BEC1BF0E552E552E9C0E6FFEAC02E
:10168000E6FFE5C0E6FFE6C0E6FFE7C0E6FFE8C02C
:10169000E6FFE3C0E6FFE4C0E6FFC4EC05F0146E2D
:1016A000080EE15E145012000A0E0001E11901E17A
:1016B000E25101E1F5D0090EE11901E1E25101E148
:1016C000CAD0080EE11901E1E25101E19FD00B0EF1
:1016D000E11901E1E25101E180D0070EE11901E1D8
:1016E000E25101E178D0060EE11901E1E25101E198
:1016F00072D0050EE11901E1E2514DE0040EE1194D
:1017000001E1E25136E0030EE11901E1E2511FE08F
:10171000020EE11901E1E25108E0010EE11901E0D8
:10172000E4D0E25101E0E1D056D00F01085101E1CF
:10173000DED0540EE66E400EE66EE66AE66AEEEC29
:1017400013F0E552E552E552E552020E35D00F0195
:10175000085101E1CCD0430EE66E400EE66EE66A1B
:10176000E66AEEEC13F0E552E552E552E552010E61
:1017700023D00F01085101E1BAD0320EE66E400EBF
:10178000E66EE66AE66AEEEC13F0E552E552E552E3
:10179000E552050E11D00F01085101E1A8D0210E2C
:1017A000E66E400EE66EE66AE66AEEEC13F0E5528F
:1017B000E552E552E552040EE66EE66A6FEC16F06D
:1017C000E552E552F40EE66E010EE66E4BEC1BF0B0
:1017D000E552E552120078EF01F00F01085116E0D2
:1017E000180EE66E400EE66EE66AE66AEEEC13F060
:1017F000E552E552E552E55247EC16F0F40EE66E7E
:10180000010EE66E4BEC1BF0E552E5520F0108515C
:1018100022E0110EE66E400EE66EE66AE66AEEEC37
:1018200013F0E552E552E552E552000EE66EE66A27
:10183000E3EC15F0E552E552050EE66EE66AE3ECE0
:1018400015F0E552E552F40EE66E010EE66E4BEC35
:101850001BF0E552E5520F01085122E0080EE66E3A
:10186000400EE66EE66AE66AEEEC13F0E552E552EB
:10187000E552E552010EE66EE66AE3EC15F0E5523C
:10188000E552030EE66EE66AE3EC15F0E552E5522A
:10189000F40EE66E010EE66E4BEC1BF0E552E552DF
:1018A0000F01085122E0FF0EE66E3F0EE66EE66A7B
:1018B000E66AEEEC13F0E552E552E552E552020E0F
:1018C000E66EE66AE3EC15F0E552E552030EE66ECD
:1018D000E66AE3EC15F0E552E552F40EE66E010E11
:1018E000E66E4BEC1BF0E552E55278EC01F012008D
:1018F0000101010EB41901E1B5510EE00A0EB45D0B
:10190000000EB5590AE3B4C114F0156A010E14169D
:10191000141803E1155001E1010C000C0101010E46
:10192000B61903E1B75101E1010C000CE1DF000938
:1019300002E00001F62BF2DF000902E00001F607E9
:10194000EE0EE66E3F0EE66EE66AE66AEEEC13F029
:10195000E552E552E552E552F6C014F0156A166AF2
:10196000176A14AE03D015681668176814C0E6FF2E
:1019700015C0E6FF16C0E6FF17C0E6FFE66AE66A96
:10198000C7EC12F0186E060EE15E18501200D9CFA7
:10199000E6FFE1CFD9FF020EE126DE6ADD6ADECF87
:1019A00014F0DDCF15F0153404E214500F08000ECA
:1019B000155425E3DECFE9FFDDCFEAFFD890E93605
:1019C000EA36AC0EE926010EEA22EE50ED1004E0F4
:1019D000EC0EE66E3F0E03D0EA0EE66E3F0EE66EAC
:1019E000DFCFE6FF010EE66EEEEC13F0E552E552B6
:1019F000E552E552DF2A010ED2E3DB2AD0D7020EF0
:101A0000E15C02E2E16AE552E16EE552E7CFD9FF1F
:021A10001200C2
:0E1A1200D9CFE6FFE1CFD9FF040EE126DE6A50
:101A2000DD6ADECF14F0DDCF15F0166A176A15AE49
:101A300002D016681768D950FB0FE96EFF0EDA2046
:101A4000EA6EEE50145CEE501558EE501658EE50FB
:101A500017581DE2020EDB6A030EDB6A020EDBCFB3
:101A600014F0030EDBCF15F0D890155004E6050EE8
:101A7000145C000E155806E2020EDB2A030EEEE39C
:101A8000DB2AECD7DF2A010ECCE3DB2ACAD7040E0F
:101A9000E15C02E2E16AE552E16EE552E7CFD9FF8F
:101AA0001200D9CFE6FFE1CFD9FF040EE126DE6AAE
:101AB000DD6ADECF14F0DDCF15F0166A176A15AEB9
:101AC00002D016681768D950FB0FE96EFF0EDA20B6
:101AD000EA6EEE50145CEE501558EE501658EE506B
:101AE00017581DE2020EDB6A030EDB6A020EDBCF23
:101AF00014F0030EDBCF15F0D890155004E6EE0E6F
:101B0000145C000E155806E2020EDB2A030EEEE30B
:101B1000DB2AECD7DF2A010ECCE3DB2ACAD7040E7E
:101B2000E15C02E2E16AE552E16EE552E7CFD9FFFE
:101B30001200D9CFE6FFE1CFD9FF0F0E8116FE0EBE
:101B4000DB50F00B81128186010EE66EE66AE66AD2
:101B5000E66AA7DFE552E552E552E5528196010EAD
:101B6000E66EE66AE66AE66A9CDFE552E552E55211
:101B7000E5520F0E8116FE0EDB38F00B81128186C6
:101B8000010EE66EE66AE66AE66A8BDFE552E5522A
:101B9000E552E5528196010EE66EE66AE66AE66A6D
:101BA00080DFE552E552E552E552E552E7CFD9FF35
:101BB0001200D9CFE6FFE1CFD9FFE652190EE66E4B
:101BC000E66AE66AE66A6DDFE552E552E552E552FD
:101BD0000F0E8116F80E81160F0E8116300E81122F
:101BE0008186010EE66EE66AE66AE66A5ADFE5522B
:101BF000E552E552E5528196010EE66EE66AE66A26
:101C0000E66A4FDFE552E552E552E5520F0E8116C6
:101C1000300E81128186010EE66EE66AE66AE66A99
:101C200040DFE552E552E552E5528196010EE66E3F
:101C3000E66AE66AE66A35DFE552E552E552E552C4
:101C40000F0E8116300E81128186010EE66EE66A55
:101C5000E66AE66A26DFE552E552E552E5528196EC
:101C6000010EE66EE66AE66AE66A1BDFE552E552B9
:101C7000E552E5520F0E8116818A8186010EE66ECD
:101C8000E66AE66AE66A0DDFE552E552E552E5529C
:101C90008196010EE66EE66AE66AE66A02DFE552C2
:101CA000E552E552E552280EE66E43DFE5520C0E92
:101CB000E66E3FDFE552E552E552E7CFD9FF12006D
:101CC000D9CFE6FFE1CFD9FF020EE126DF6A010E90
:101CD000DB6A81940F0EE66EE66AE66AE66A99DED2
:101CE000E552E552E552E5520F0E81128186E66E0D
:101CF000E66AE66AE66A8DDEE552E552E552E552AD
:101D00000F0E8114E76E010EE7CFDBFF81960F0EF9
:101D1000E66EE66AE66AE66A7CDEE552E552E55280
:101D2000E5520F0E81128186E66EE66AE66AE66A81
:101D300070DEE552E552E552E5520F0E8114DF6E7A
:101D4000010EDB50DF128196010EE66EE66AE66A4E
:101D5000E66A5FDEE552E552E552E552DF50146E69
:101D6000020EE15C02E2E16AE552E16E1450E552D6
:101D7000E7CFD9FF1200D9CFE6FFE1CFD9FFE65276
:101D8000DF6A9EDFDF6EDFBEFCD7DF50E552E55233
:101D9000E7CFD9FF1200D9CFE6FFE1CFD9FF0F0E71
:101DA0008116FE0EDB5081128186050EE66EE66A14
:101DB000E66AE66A2EDEE552E552E552E552819684
:101DC000050EE66EE66AE66AE66A23DEE552E5524D
:101DD000E552E552E552E7CFD9FF1200D9CFE6FF31
:101DE000E1CFD9FF8194050EE66EE66AE66AE66AFF
:101DF00010DEE552E552E552E552FE0EDBCFE6FF7E
:101E0000CADFE552FE0EDB38F00BE66EC4DFE552AA
:101E1000E552E7CFD9FF1200D9CFE6FFE1CFD9FFD6
:101E20008184050EE66EE66AE66AE66AF2DDE55250
:101E3000E552E552E552FE0EDBCFE6FFACDFE552A0
:101E4000FE0EDB38F00BE66EA6DFE5528194E5521C
:101E5000E7CFD9FF1200D9CFE6FFE1CFD9FFFE0EC1
:101E6000DBCFE6FFD9DFE552E552E7CFD9FF12001D
:101E7000D9CFE6FFE1CFD9FFFE0EDBCFE6FFCCDF07
:101E8000E552E552E7CFD9FF1200D9CFE6FFE1CF07
:101E9000D9FFFD0EDBCFF6FFFE0EDBCFF7FF08000C
:101EA000F5500FE0FD0EDBCFF6FFDB2AFE0EDBCF99
:101EB000F7FF01E3DB2A0800F550E66ED9DFE552B3
:101EC000E8D7E552E7CFD9FF1200D9CFE6FFE1CF3F
:101ED000D9FFE652FD0EDB500F0B146EFE0EDB50E9
:101EE000010B400DF3501424DF6E7F0EDF14800FC2
:101EF000DF6EDFCFE6FF72DFE552E552E552E7CF56
:101F0000D9FF1200010EE66E69DFE552E66AE66A65
:101F1000DCDFE552E5521200D9CFE6FFE1CFD9FF71
:101F2000050EE126010EF36EDB6E020EDB6A030E78
:101F3000DB6A040EDB6ADF6ADFCF14F0156A14BEB9
:101F40001568FB0EDBCF16F0FC0EDBCF17F015503B
:101F50001718E8AE02D0173404D01650145C17508E
:101F600015582DE2FD0EDBCF14F0FE0EDBCF15F081
:101F7000166A176A15AE02D016681768D950010F95
:101F8000E96EDACFEAFF14C00BF015C00CF016C0F2
:101F90000DF017C00EF0EECF06F0EECF07F0EECF4B
:101FA00008F0EFCF09F05CEC21F005C0EDFF04C0B4
:101FB000EDFF03C0EDFF02C0EFFFDF2ABDD7010E2A
:101FC000DBCF14F0020EDBCF15F0030EDBCF16F0E3
:101FD000040EDBCF17F014C006F015C007F016C0D2
:101FE00008F017C009F0050EE15C02E2E16AE55273
:101FF000E16EE552E7CFD9FF1200D9CFE6FFE1CF7E
:10200000D9FF020EE126DF6AFB0EDBCF14F0FC0ED7
:10201000DBCF15F0FD0EDBCF16F0FE0EDBCF17F099
:10202000145015101610171005E1300EE66E20DF63
:10203000E552F4D0D950FB0FE96EFF0EDA20EA6EBC
:10204000D890030EEB50000A08E6000EEE5C000E7E
:10205000EE58000EEE58000EEE5815E22D0EE66E0C
:1020600007DFE552D950FB0FE96EFF0EDA20EA6E6A
:10207000000EEE6CEF1EEE22EF1EEE22EF1EEF22A0
:10208000ED52ED52ED52DE52070EDD6E010EDBCF4A
:1020900014F0000EE76E1418E8AE02D0143403D02A
:1020A000E750D880145401E3B9D0010EDB04186E58
:1020B000196A18BE196818C0E6FF19C0E6FF0A0EB3
:1020C000E66EE66A29DFE552E552E552E55206C0C2
:1020D00014F007C015F008C016F009C017F006C0CC
:1020E0000BF007C00CF008C00DF009C00EF0FB0E9D
:1020F000DBCF06F0FC0EDBCF07F0FD0EDBCF08F0E8
:10210000FE0EDBCF09F094EC21F00650071008100A
:10211000091041E0010EDF6EDB041C6E1D6A1CBE5F
:102120001D681CC0E6FF1DC0E6FF0A0EE66EE66AEB
:10213000F3DEE552E552E552E55206C018F007C05D
:1021400019F008C01AF009C01BF006C00BF007C058
:102150000CF008C00DF009C00EF0FB0EDBCF06F04E
:10216000FC0EDBCF07F0FD0EDBCF08F0FE0EDBCF61
:1021700009F094EC21F006C014F007C015F008C077
:1021800016F009C017F0300E1426000E1522162284
:102190001722145003D0DF5004E0300EE66E68DEE4
:1021A000E552010EDB04186E196A18BE196818C0D2
:1021B000E6FF19C0E6FF0A0EE66EE66AADDEE552FE
:1021C000E552E552E55206C014F007C015F008C00C
:1021D00016F009C017F0D950FB0FE96EFF0EDA2098
:1021E000EA6E06C00BF007C00CF008C00DF009C085
:1021F0000EF0EECF06F0EECF07F0EECF08F0EFCF07
:1022000009F094EC21F005C0EDFF04C0EDFF03C020
:10221000EDFF02C0EFFF010EDB0638D7020EE15CD6
:1022200002E2E16AE552E16EE552E7CFD9FF120022
:10223000D9CFE6FFE1CFD9FFFD0EDBCFE6FFFE0EE3
:10224000DBCFE6FF42DEE552E552D950F90FE96EE9
:10225000FF0EDA20EA6EEECFE6FFEECFE6FFEECF1E
:10226000E6FFEFCFE6FFC9DEE552E552E552E55263
:10227000E552E7CFD9FF1200D9CFE6FFE1CFD9FF72
:10228000FD0EDBCFE6FFFE0EDBCFE6FF1EDEE552E6
:10229000E552FB0EDBCFE6FFFC0EDBCFE6FFF5DD04
:1022A000E552E552E552E7CFD9FF1200D9CFE6FF5C
:1022B000E1CFD9FFF7C014F0F8C015F0040ED890A4
:1022C00014361536E806FBE1C10E1426000E152261
:1022D00014500001F925E96E1550FA21EA6EFE0E40
:1022E000DBCFEFFFF92B000EFA23E552E7CFD9FF42
:1022F0001200D9CFE6FFE1CFD9FFE652DF6ADFCF88
:1023000014F0100EE76E1418E8AE02D0E73402D0D5
:10231000E750145C18E2DFCFE9FFEA6AE9BEEA6839
:10232000C10EE926000EEA22200EEF6EDFCFE9FF94
:10233000EA6AE9BEEA68D10EE926000EEA22200E1A
:10234000EF6EDF2ADCD7E552E552E7CFD9FF120066
:10235000D9CFE6FFE1CFD9FFE6520001C051030A11
:1023600052E0010A36E0030A1AE0010A67E1E66A70
:10237000E66AABDDE552E552DF6A080EDF5C0CE28F
:10238000DF50EA6AC10FE96E000EEA22EF50E66EF6
:102390006FDDE552DF2AF1D70001010E32D0080EC1
:1023A000E66EE66A92DDE552E552DF6A080EDF5C12
:1023B0000DE2080EDF24EA6AC10FE96E000EEA2280
:1023C000EF50E66E55DDE552DF2AF0D70001020E30
:1023D00018D0E66A010EE66E78DDE552E552DF6A56
:1023E000080EDF5C0CE2DF50EA6AD10FE96E000EE6
:1023F000EA22EF50E66E3CDDE552DF2AF1D700011C
:10240000030EC06F1CD0080EE66E010EE66E5DDD99
:10241000E552E552DF6A080EDF5C0DE2080EDF24AC
:10242000EA6AD10FE96E000EEA22EF50E66E20DD77
:10243000E552DF2AF0D70001C06B01D0C06BE55236
:10244000E552E7CFD9FF1200D9CFE6FFE1CFD9FFA0
:10245000E6520001C051010A1BE0010A32E1E66ABE
:10246000E66A33DDE552E552DF6A100EDF5C0CE20E
:10247000DF50EA6AC10FE96E000EEA22EF50E66E05
:10248000F7DCE552DF2AF1D70001010EC06F1AD048
:10249000E66A010EE66E19DDE552E552DF6A100EBE
:1024A000DF5C0CE2DF50EA6AD10FE96E000EEA222F
:1024B000EF50E66EDDDCE552DF2AF1D70001C06B9C
:1024C00001D0C06BE552E552E7CFD9FF1200D9CF5A
:1024D000E6FFE1CFD9FFE652E66AE66AF6DCE552AE
:1024E000E552DF6A100EDF5C0CE2DF50EA6AC10FD2
:1024F000E96E000EEA22EF50E66EBADCE552DF2A02
:10250000F1D7E66A010EE66EE0DCE552E552DF6ADD
:10251000100EDF5C0CE2DF50EA6AD10FE96E000EAC
:10252000EA22EF50E66EA4DCE552DF2AF1D7E5524D
:10253000E552E7CFD9FF1200D9CFE6FFE1CFD9FFAF
:10254000FE0EDB50010B0001F76FF86BFD0EDB5048
:102550000F0BF96FFA6BF7C014F0F8C015F0040E0A
:10256000D89014361536E806FBE1C10E1426000E8D
:10257000152214500001F925E96E1550FA21EA6E72
:10258000FC0EDBCFEFFFE552E7CFD9FF1200D9CF2A
:10259000E6FFE1CFD9FF020EE126DF6AFE0EDB5037
:1025A000010B0001F76FF86BFD0EDB500F0BF96F9D
:1025B000FA6BF90EDBCF14F0FA0EDBCF15F0FB0E41
:1025C000DBCF16F0FC0EDBCF17F0145015101610F1
:1025D000171005E1300EE66E69DEE552F5D0D950F0
:1025E000F90FE96EFF0EDA20EA6ED890030EEB5079
:1025F000000A08E6000EEE5C000EEE58000EEE58E3
:10260000000EEE5815E22D0EE66E50DEE552D95062
:10261000F90FE96EFF0EDA20EA6E000EEE6CEF1E87
:10262000EE22EF1EEE22EF1EEF22ED52ED52ED52A2
:10263000DE52070EDD6E010EDBCF14F0000EE76EEA
:102640001418E8AE02D0143403D0E750D8801454E4
:1026500001E3BAD0010EDB04186E196A18BE1968BE
:1026600018C0E6FF19C0E6FF0A0EE66EE66A54DC03
:10267000E552E552E552E55206C014F007C015F0E8
:1026800008C016F009C017F006C00BF007C00CF028
:1026900008C00DF009C00EF0F90EDBCF06F0FA0EFF
:1026A000DBCF07F0FB0EDBCF08F0FC0EDBCF09F031
:1026B00094EC21F0065007100810091041E0010EBB
:1026C000DF6EDB041C6E1D6A1CBE1D681CC0E6FFAD
:1026D0001DC0E6FF0A0EE66EE66A1EDCE552E55214
:1026E000E552E55206C018F007C019F008C01AF00C
:1026F00009C01BF006C00BF007C00CF008C00DF0BD
:1027000009C00EF0F90EDBCF06F0FA0EDBCF07F0B2
:10271000FB0EDBCF08F0FC0EDBCF09F094EC21F0D0
:1027200006C014F007C015F008C016F009C017F075
:10273000300E1426000E152216221722145003D034
:10274000DF5004E0300EE66EB1DDE552010EDB0431
:10275000186E196A18BE196818C0E6FF19C0E6FF9E
:102760000A0EE66EE66A8CEC0FF0E552E552E55291
:10277000E55206C014F007C015F008C016F009C0F5
:1027800017F0D950F90FE96EFF0EDA20EA6E06C095
:102790000BF007C00CF008C00DF009C00EF0EECF32
:1027A00006F0EECF07F0EECF08F0EFCF09F094EC93
:1027B00021F005C0EDFF04C0EDFF03C0EDFF02C036
:1027C000EFFF010EDB0637D7020EE15C02E2E16AA1
:1027D000E552E16EE552E7CFD9FF1200D9CFE6FF0F
:1027E000E1CFD9FFFE0EDB50010B0001F76FF86B54
:1027F000FD0EDB500F0BF96FFA6BFB0EDBCFF6FF14
:10280000FC0EDBCFF7FF0800F5500FE0FB0EDBCF2F
:10281000F6FFDB2AFC0EDBCFF7FF01E3DB2A080023
:10282000F550E66E43DDE552E8D7E552E7CFD9FF34
:02283000120094
:0E283200D9CFE6FFE1CFD9FFFE0EDBCF15F0C8
:10284000800E15141AE1FD0EDBCF16F0FE0EDBCF65
:1028500017F0173404E216500708000E17540DE362
:10286000FD0EDBCFE9FFFE0EDBCFEAFFDC0EE92633
:10287000010EEA22EF508310836EE552E7CFD9FFB5
:102880001200D9CFE6FFE1CFD9FFFE0EDBCF15F066
:10289000800E15141AE1FD0EDBCF16F0FE0EDBCF15
:1028A00017F0173404E216500708000E17540DE312
:1028B000FD0EDBCFE9FFFE0EDBCFEAFFDC0EE926E3
:1028C000010EEA22EF1C8314836EE552E7CFD9FF95
:1028D0001200D9CFE6FFE1CFD9FFFD0EDBCFE9FF34
:1028E000FE0EDBCFEAFFE40EE926010EEA22EF043A
:1028F00015E1FD0EDBCFE6FFFE0EDBCFE6FFC1DF0D
:10290000E552E552FD0EDBCFE9FFFE0EDBCFEAFF1D
:10291000E40EE926010EEA22EF6A15D0FD0EDBCFA8
:10292000E6FFFE0EDBCFE6FF84DFE552E552FD0E4B
:10293000DBCFE9FFFE0EDBCFEAFFE40EE926010E56
:10294000EA22010EEF6EE552E7CFD9FF1200D9CF90
:10295000E6FFE1CFD9FFFE0EDBCF15F0800E151498
:102960001AE1FD0EDBCF16F0FE0EDBCF17F01734A9
:1029700004E216500708000E17540DE3FD0EDBCFDE
:10298000E9FFFE0EDBCFEAFFDC0EE926010EEA22AC
:10299000EF508910806EE552E7CFD9FF1200D9CFF2
:1029A000E6FFE1CFD9FFFE0EDBCF15F0800E151448
:1029B0001AE1FD0EDBCF16F0FE0EDBCF17F0173459
:1029C00004E216500708000E17540DE3FD0EDBCF8E
:1029D000E9FFFE0EDBCFEAFFDC0EE926010EEA225C
:1029E000EF1C8914806EE552E7CFD9FF1200D9CFD2
:1029F000E6FFE1CFD9FFFD0EDB5089CFE7FF070BE4
:102A000004E0E742E79EE806FCE1E750010B01081D
:102A100008E1FD0EDBCFE6FFFE0EDBCFE6FFBFDFFA
:102A200007D0FD0EDBCFE6FFFE0EDBCFE6FF8FDF2C
:102A3000E552E552E552E7CFD9FF1200D9CFE6FFC4
:102A4000E1CFD9FF3F0EE76EFD0EDBCF14F0E7506C
:102A500014168950166EC00E161614501610806E7D
:102A6000E552E7CFD9FF12000101DC518410846EDA
:102A700012000101DC1D8414846E1200D9CFE6FF20
:102A8000E1CFD9FF020EE126DE6ADD6ADE6ADD6A89
:102A9000DECF14F0DDCF15F0FB0EDBCF16F0FC0E11
:102AA000DBCF17F015501718E8AE02D0173404D05A
:102AB0001650145C1750155836E2FD0EDBCF16F099
:102AC000FE0EDBCF17F0DF5016C014F017C015F064
:102AD00005E0D89015321432E804FBE1010E14161B
:102AE000000E1516010E141807E1155005E1000E31
:102AF000E66EE66A2CDF04D0000EE66EE66A4FDF73
:102B0000E552E552010EE66EE66A21DFE552E55236
:102B1000010EE66EE66A43DFE552E552DF2A010E5A
:102B2000B7E3DB2AB5D7020EE66EE66A10DFE552A0
:102B3000E552020EE66EE66A32DFE552E552020E1B
:102B4000E15C02E2E16AE552E16EE552E7CFD9FFCE
:102B50001200D9CFE6FFE1CFD9FFFD0EDBCF14F095
:102B6000FE0EDBCF15F00001800E15141BE1FD0EEB
:102B7000DBCF16F0FE0EDBCF17F0173404E2165051
:102B80000708000E17540EE3FD0EDBCFE9FFFE0E23
:102B9000DBCFEAFFDC0EE926010EEA22EF5001014D
:102BA000F411F46FF6C1E6FFF7C1E6FFF4C1E6FFEA
:102BB000F5C1E6FF63DFE552E552E552E552E55225
:102BC000E7CFD9FF1200D9CFE6FFE1CFD9FFFD0E45
:102BD000DBCF14F0FE0EDBCF15F00001800E1514D4
:102BE0001CE1FD0EDBCF16F0FE0EDBCF17F0173425
:102BF00004E216500708000E17540FE3FD0EDBCF5A
:102C0000E9FFFE0EDBCFEAFFDC0EE926010EEA2229
:102C1000EF1C0101F415F46FF56BF6C1E6FFF7C187
:102C2000E6FFF4C1E6FFF5C1E6FF28DFE552E55215
:102C3000E552E552E552E7CFD9FF1200D9CFE6FFC2
:102C4000E1CFD9FF3F0EE76EFD0EDBCF14F0E7506A
:102C50001416156AC00E0101F415166EFF0EF51557
:102C6000176E14501610F46F15501710F56FF6C14B
:102C7000E6FFF7C1E6FFF4C1E6FFE66EFFDEE552D0
:102C8000E552E552E552E552E7CFD9FF1200F4C113
:102C900014F0F5C115F0D89015321432010E141647
:102CA000000E1516010E14180DE115500BE1010E62
:102CB000E66EE66A88DFE552E552040EE66EE66AE5
:102CC00082DF0AD0010EE66EE66A43DFE552E55286
:102CD000040EE66EE66A3DDFE552E5521200D9CFFA
:102CE000E6FFE1CFD9FFFD0EDB50F4C114F0F5C1D2
:102CF00015F005E0D89015321432E804FBE1010E1E
:102D00001416000E1516010E14180AE1155008E1EC
:102D1000FD0EDBCFE6FFFE0EDBCFE6FF54DF07D074
:102D2000FD0EDBCFE6FFFE0EDBCFE6FF12DFE55246
:102D3000E552E552E7CFD9FF1200D9CFE6FFE1CF48
:102D4000D9FF020EE126DE6ADD6ADE6ADD6ADECFC9
:102D500014F0DDCF15F0FB0EDBCF16F0FC0EDBCF51
:102D600017F015501718E8AE02D0173404D01650DB
:102D7000145C1750155836E2FD0EDBCF16F0FE0E30
:102D8000DBCF17F0DF5016C014F017C015F005E0C8
:102D9000D89015321432E804FBE1010E1416000E2F
:102DA0001516010E141807E1155005E1030EE66E25
:102DB000E66ACDDD04D0030EE66EE66AF0DDE5528C
:102DC000E552040EE66EE66AC2DDE552E552040EF7
:102DD000E66EE66AE4DDE552E552DF2A010EB7E36E
:102DE000DB2AB5D7050EE66EE66AB1DDE552E5529F
:102DF000050EE66EE66AD3DDE552E552020EE15CB1
:102E000002E2E16AE552E16EE552E7CFD9FF120036
:102E1000D9CFE6FFE1CFD9FFFD0EDBCF14F0FE0ED8
:102E2000DBCF15F00001800E15141BE1FD0EDBCF8A
:102E300016F0FE0EDBCF17F0173404E21650070829
:102E4000000E17540EE3FD0EDBCFE9FFFE0EDBCFC5
:102E5000EAFFDC0EE926010EEA22EF500101F8112B
:102E6000F86FFAC1E6FFFBC1E6FFF8C1E6FFF9C162
:102E7000E6FF63DFE552E552E552E552E552E7CF62
:102E8000D9FF1200D9CFE6FFE1CFD9FFFD0EDBCF8E
:102E900014F0FE0EDBCF15F00001800E15141CE1BE
:102EA000FD0EDBCF16F0FE0EDBCF17F0173404E279
:102EB00016500708000E17540FE3FD0EDBCFE9FF95
:102EC000FE0EDBCFEAFFDC0EE926010EEA22EF1C44
:102ED0000101F815F86FF96BFAC1E6FFFBC1E6FFD7
:102EE000F8C1E6FFF9C1E6FF28DFE552E552E552F9
:102EF000E552E552E7CFD9FF1200D9CFE6FFE1CF87
:102F0000D9FF3F0EE76EFD0EDBCF14F0E75014162D
:102F1000156AC00E0101F815166EFF0EF915176E31
:102F200014501610F86F15501710F96FFAC1E6FF1C
:102F3000FBC1E6FFF8C1E6FFE66EFFDEE552E552B3
:102F4000E552E552E552E7CFD9FF1200D9CFE6FFAF
:102F5000E1CFD9FFFD0EDB50F8C114F0F9C115F037
:102F600005E0D89015321432E804FBE1010E141686
:102F7000000E1516010E14180AE1155008E1FD0E99
:102F8000DBCFE6FFFE0EDBCFE6FF7CDF07D0FD0EDA
:102F9000DBCFE6FFFE0EDBCFE6FF3ADFE552E55280
:102FA000E552E7CFD9FF1200D9CFE6FFE1CFD9FF35
:102FB000020EE126DE6ADD6ADE6ADD6ADECF14F02B
:102FC000DDCF15F0FB0EDBCF16F0FC0EDBCF17F0DC
:102FD00015501718E8AE02D0173404D01650145C00
:102FE0001750155837E2FD0EDBCF16F0FE0EDBCF83
:102FF00017F0DF5016C014F017C015F005E0D89098
:1030000015321432E804FBE1010E1416000E1516F9
:10301000010E141807E1155005E1000EE66EE66A90
:1030200008DC04D0000EE66EE66A2BDCE552E552C1
:10303000010EE66EE66A19EC14F0E552E552010E57
:10304000E66EE66A1EDCE552E552DF2A010EB6E3C3
:10305000DB2AB4D7020EE66EE66A19EC14F0E552EC
:10306000E552020EE66EE66A0CDCE552E552020E0F
:10307000E15C02E2E16AE552E16EE552E7CFD9FF99
:103080001200D9CFE6FFE1CFD9FFFD0EDBCF14F060
:10309000FE0EDBCF15F00001800E15141BE1FD0EB6
:1030A000DBCF16F0FE0EDBCF17F0173404E216501C
:1030B0000708000E17540EE3FD0EDBCFE9FFFE0EEE
:1030C000DBCFEAFFDC0EE926010EEA22EF50010118
:1030D000FC11FC6FFEC1E6FFFFC1E6FFFCC1E6FF8D
:1030E000FDC1E6FF61DFE552E552E552E552E552EA
:1030F000E7CFD9FF1200D9CFE6FFE1CFD9FFFD0E10
:10310000DBCF14F0FE0EDBCF15F00001800E15149E
:103110001CE1FD0EDBCF16F0FE0EDBCF17F01734EF
:1031200004E216500708000E17540FE3FD0EDBCF24
:10313000E9FFFE0EDBCFEAFFDC0EE926010EEA22F4
:10314000EF1C0101FC15FC6FFD6BFEC1E6FFFFC12A
:10315000E6FFFCC1E6FFFDC1E6FF26DFE552E552D2
:10316000E552E552E552E7CFD9FF1200D9CFE6FF8D
:10317000E1CFD9FF3F0EE76EFD0EDBCF14F0E75035
:103180001416156AC00E0101FC15166EFF0EFD1512
:10319000176E14501610FC6F15501710FD6FFEC1FE
:1031A000E6FFFFC1E6FFFCC1E6FFE66EFDDEE5528D
:1031B000E552E552E552E552E7CFD9FF1200D9CFEB
:1031C000E6FFE1CFD9FFFD0EDB50FCC114F0FDC1DD
:1031D00015F005E0D89015321432E804FBE1010E39
:1031E0001416000E1516010E14180AE1155008E108
:1031F000FD0EDBCFE6FFFE0EDBCFE6FF7CDF07D068
:10320000FD0EDBCFE6FFFE0EDBCFE6FF3ADFE55239
:0A321000E552E552E7CFD9FF1200A6
:06321A00D9CFE6FFE1CF71
:10322000D9FFD59EFD0EDBCF00FFFE0EDBCF01FFE9
:10323000D59C17681868196A00CF1AF001CF1BF0E7
:103240001C6A1A50175C146E1B501858156E1C50CF
:103250001958166E0C6A010E0D6E0E6A14C007F036
:1032600015C008F016C009F0B3EC20F00350D66E7C
:1032700017681868196A00CF1AF001CF1BF01C6A92
:103280001A50175C146E1B501858156E1C501958A4
:10329000166E0C6A010E0D6E0E6A14C007F015C092
:1032A00008F016C009F0B3EC20F007C014F008C015
:1032B00015F009C016F00750D76ED59AD586F28A58
:1032C000F294F184D58EE552E7CFD9FF1200D59E56
:1032D000120017681868196A00CF1AF001CF1BF0A6
:1032E0001C6A1A50175C146E1B501858156E1C502F
:1032F0001958166E0C6A010E0D6E0E6A14C007F096
:1033000015C008F016C009F0B3EC20F00350D66EDB
:1033100017681868196A00CF1AF001CF1BF01C6AF1
:103320001A50175C146E1B501858156E1C50195803
:10333000166E0C6A010E0D6E0E6A14C007F015C0F1
:1033400008F016C009F0B3EC20F007C014F008C074
:1033500015F009C016F00750D76ED58E1200D9CFE0
:10336000E6FFE1CFD9FFCD90FD0EDBCF02FFFE0ED1
:10337000DBCF03FF17681868196A02CF1AF003CF72
:103380001BF01C6A1A50175C146E1B501858156EEF
:103390001C501958166E0C6A010E0D6E0E6A14C080
:1033A00007F015C008F016C009F0B3EC20F0075084
:1033B000CF6E17681868196A02CF1AF003CF1BF096
:1033C0001C6A1A50175C146E1B501858156E1C504E
:1033D0001958166E0C6A010E0D6E0E6A14C007F0B5
:1033E00015C008F016C009F0B3EC20F003C014F0CB
:1033F00004C015F005C016F00350CE6E9D809E905F
:103400009F90CD8ECD8CCD98CD9ACD96CD92CD80FE
:10341000E552E7CFD9FF120017681868196A02CF82
:103420001AF003CF1BF01C6A1A50175C146E1B5065
:103430001858156E1C501958166E0C6A010E0D6E38
:103440000E6A14C007F015C008F016C009F0B3ECFE
:1034500020F00750CF6E17681868196A02CF1AF06B
:1034600003CF1BF01C6A1A50175C146E1B501858BF
:10347000156E1C501958166E0C6A010E0D6E0E6AF0
:1034800014C007F015C008F016C009F0B3EC20F026
:1034900003C014F004C015F005C016F00350CE6E42
:1034A000CD801200CD901200D9CFE6FFE1CFD9FF39
:1034B000CA94CC6AFE0EDB500F01046F056BCB6E15
:1034C0009D829E929F92CA90CA92CA84E552E7CF8B
:1034D000D9FF120004CFCBFFCA841200CA94120095
:1034E000D9CFE6FFE1CFD9FFB190FD0EDBCF06FFCC
:1034F000FE0EDBCF07FF17681868196A06CF1AF0AF
:1035000007CF1BF01C6A1A50175C146E1B5018581A
:10351000156E1C501958166E0C6A010E0D6E0E6A4F
:1035200014C007F015C008F016C009F0B3EC20F085
:103530000750B36E17681868196A06CF1AF007CFDC
:103540001BF01C6A1A50175C146E1B501858156E2D
:103550001C501958166E0C6A010E0D6E0E6A14C0BE
:1035600007F015C008F016C009F0B3EC20F003C056
:1035700014F004C015F005C016F00350B26EA0821E
:10358000A192A292B18EB198B19AB192B180E55256
:10359000E7CFD9FF120017681868196A06CF1AF02A
:1035A00007CF1BF01C6A1A50175C146E1B5018587A
:1035B000156E1C501958166E0C6A010E0D6E0E6AAF
:1035C00014C007F015C008F016C009F0B3EC20F0E5
:1035D0000350B26E17681868196A06CF1AF007CF41
:1035E0001BF01C6A1A50175C146E1B501858156E8D
:1035F0001C501958166E0C6A010E0D6E0E6A14C01E
:1036000007F015C008F016C009F0B3EC20F007C0B1
:1036100014F008C015F009C016F00750B36EB18061
:103620001200B19012000F01102B000E112318513F
:10363000105D1951115904E3106B116B010E086FE5
:1036400012000F01122B000E13231A51125D1B5191
:10365000135904E3126B136B010E096F12000F0173
:10366000142B000E15231C51145D1D51155904E334
:10367000146B156B010E0A6F12000F01162B000E52
:1036800017231E51165D1F51175904E3166B176B54
:10369000010E0B6F1200D9CFE6FFE1CFD9FFFD0E6F
:1036A000DBCF18FFFE0EDBCF19FF0F01106B116B84
:1036B000086BE552E7CFD9FF1200D9CFE6FFE1CF83
:1036C000D9FFFD0EDBCF1AFFFE0EDBCF1BFF050E71
:1036D0000D6E0E6A1ACF08F01BCF09F08DEC20F0AA
:1036E00008C01AFF09C01BFF0F01126B136B096B97
:1036F000E552E7CFD9FF1200D9CFE6FFE1CFD9FFDE
:10370000FD0EDBCF1EFFFE0EDBCF1FFF0A0E0D6E80
:103710000E6A1ECF08F01FCF09F08DEC20F008C014
:103720001EFF09C01FFF0F01166B176B0B6BE552D5
:06373000E7CFD9FF1200F3
:0A3736000F0E946E82681200D9CFC6
:10374000E6FFE1CFD9FF040EE126DE6ADD6ADECFB7
:1037500014F0DDCF15F0D890155004E6080E145C77
:10376000000E155840E2DECFE9FFDDCFEAFFD40EB0
:10377000E926010EEA22EF50821423E1DECFE9FFB1
:10378000DDCFEAFFD890E936EA36AC0EE926010E25
:10379000EA22EECF14F0EFCF15F0010E1426000E42
:1037A0001522DECFE9FFDDCFEAFFD890E936EA3611
:1037B000AC0EE926010EEA2214C0EEFF15C0EDFFA3
:1037C0000DD0DECFE9FFDDCFEAFFD890E936EA364B
:1037D000AC0EE926010EEA22EE6AED6ADF2A010E3E
:1037E000B6E3DB2AB4D7040EE15C02E2E16AE552FB
:1037F000E16EE552E7CFD9FF1200D9CFE6FFE1CF66
:10380000D9FF040EE126DE6ADD6ADECF14F0DDCFDB
:1038100015F0D890155004E6040E145C000E1558EF
:1038200001E390D0DECFE9FFDDCFEAFFCC0EE92641
:10383000010EEA22EF1C826E020EDB6A030EDB6AC7
:10384000020EDBCF14F0030EDBCF15F0D89015502D
:1038500004E6040E145C000E15586EE2020EDBCF77
:10386000E9FF030EDBCFEAFFD00EE926010EEA22C4
:10387000EF5082143FE1DECF18F0DDCF19F0D89081
:1038800018361936D89018361936020EDB5018241F
:10389000E96E030EDB501920EA6ED890E936EA365D
:1038A000AC0EE926010EEA22EECF16F0EFCF17F0AC
:1038B000010E1626000E1722DECF14F0DDCF15F014
:1038C000D89014361536D89014361536020EDB50C3
:1038D0001424E96E030EDB501520EA6ED890E93609
:1038E000EA36AC0EE926010EEA2216C0EEFF17C03A
:1038F000EDFF1BD0DECF14F0DDCF15F0D8901436DD
:103900001536D89014361536020EDB501424E96EA5
:10391000030EDB501520EA6ED890E936EA36AC0E7D
:10392000E926010EEA22EE6AED6A020EDB2A030E98
:1039300001E286D7DB2A84D7DF2A010E01E265D7B0
:10394000DB2A63D7040EE15C02E2E16AE552E16E34
:10395000E552E7CFD9FF1200D9CFE6FFE1CFD9FF7B
:10396000040EE126DE6ADD6ADECF14F0DDCF15F04D
:10397000FD0EDBCF16F0FE0EDBCF17F0155017183B
:10398000E8AE02D0173404D01650145C1750155806
:103990001DE2020EDB6A030EDB6A020EDBCF14F0BF
:1039A000030EDBCF15F0D890155004E6EE0E145C34
:1039B000000E155806E2020EDB2A030EEEE3DB2AA8
:1039C000ECD7DF2A010ED0E3DB2ACED7040EE15C70
:1039D00002E2E16AE552E16EE552E7CFD9FF12005B
:1039E000D9CFE6FFE1CFD9FF040EE126DE6ADD6A1A
:1039F000DECF14F0DDCF15F0D890155004E6040E9C
:103A0000145C000E155875E2DECFE9FFDDCFEAFF4A
:103A1000CC0EE926010EEA22EF1C826E020EDB6A52
:103A2000030EDB6A020EDBCF14F0030EDBCF15F0C2
:103A3000D890155004E6040E145C000E15584AE2A6
:103A4000DECF14F0DDCF15F0D89014361536D890AF
:103A500014361536020EDB501424E96E030EDB50CB
:103A60001520EA6ED890E936EA36AC0EE926010E4A
:103A7000EA22EE6AED6A020EDBCFE9FF030EDBCF2E
:103A8000EAFFD00EE926010EEA22EF5082141CE173
:103A9000DECF14F0DDCF15F0D89014361536D8905F
:103AA00014361536020EDB501424E96E030EDB507B
:103AB0001520EA6ED890E936EA36AC0EE926010EFA
:103AC000EA22010EEE6EED6A020EDB2A030EAAE375
:103AD000DB2AA8D78250816EE80EE66E030EE66EF2
:103AE0003BDFE552E552DF2A010E01E281D7DB2AF6
:103AF0007FD7040EE15C02E2E16AE552E16EE55235
:063B0000E7CFD9FF12001F
:0A3B0600D9CFE6FFE1CFD9FF040E8E
:103B1000E126DE6ADD6A020EDB6A030EDB6ADE6A1C
:103B2000DD6ADECF14F0DDCF15F0D890155004E635
:103B3000070E145C000E155801E396D0000EDFCF7F
:103B400008F0010EDBCF09F0060E081801E109505C
:103B50002EE0050E081801E1095023E0040E0818B4
:103B600001E109501CE0030E081801E1095015E0BD
:103B7000020E081801E109500EE0010E081801E1DB
:103B8000095007E0085018E1095016E1020EF36EE3
:103B90000BD0030E07D0060E05D0050E03D0040E81
:103BA00001D0010EF36E020EF3CFDBFF02D0020E46
:103BB000DB6A030EDB6A0AD0D9CFE9FFDACFEAFF6E
:103BC000020EEECFDBFF030EEDCFDBFFFD0EDBCFF2
:103BD00014F0FE0EDBCF15F015340CE214500A0879
:103BE000000E155407E20A0EF36EFD0EF3CFDBFF55
:103BF000FE0EDB6AFD0EDBCF14F0FE0EDBCF15F000
:103C00000E0E1502F3CF15F01402F3CF14F0F4509A
:103C10001526120E1426010E1522020E086E096AD0
:103C2000DECF0DF0DDCF0EF0E0EC20F014500624D6
:103C3000E96E15500720EA6EEE50ED1007E0DECF7A
:103C4000E6FFDDCFE6FF41EC18F006D0DECFE6FF61
:103C5000DDCFE6FF7BEC18F0E552E552DF2A010EDE
:103C600001E25FD7DB2A5DD7040EE15C02E2E16A84
:103C7000E552E16EE552E7CFD9FF1200D9CFE6FF5A
:103C8000E1CFD9FF020EE126DE6ADD6ADE6ADD6A77
:103C9000DECF14F0DDCF15F0D890155004E6040EF9
:103CA000145C000E155818E2DECFE9FFDDCFEAFF05
:103CB000D890E936EA36000EE926010EEA22EECF68
:103CC000E6FFEFCFE6FF41EC14F0E552E552DF2AC4
:103CD000010EDEE3DB2ADCD7FD0EDBCFE9FFFE0EB3
:103CE000DBCFEAFFD890E936EA36080EE926010E66
:103CF000EA22EECFE6FFEFCFE6FF05DFE552E55221
:103D0000FD0EDBCFE9FFFE0EDBCFEAFFD890E936F0
:103D1000EA36000EE926010EEA22EECFE6FFEFCFEB
:103D2000E6FF19EC14F0E552E552020EE15C02E206
:103D3000E16AE552E16EE552E7CFD9FF1200D9CF33
:103D4000E6FFE1CFD9FFFD0EDBCF08F1FE0EDBCFA2
:103D500009F10A0E0D6E0E6A08C108F009C109F0DA
:103D60008DEC20F008C008F109C009F1FD0EDBCF91
:103D70000AF1FE0EDBCF0BF10A0E0D6E0E6A0AC1C0
:103D800008F00BC109F08DEC20F004C00AF105C069
:103D90000BF1FB0EDBCF0CF1FC0EDBCF0DF10A0EAD
:103DA0000D6E0E6A0CC108F00DC109F08DEC20F00B
:103DB00008C00CF109C00DF1FB0EDBCF0EF1FC0EBB
:103DC000DBCF0FF10A0E0D6E0E6A0EC108F00FC1A7
:103DD00009F08DEC20F004C00EF105C00FF1E552A2
:103DE000E7CFD9FF1200010110C114F011C115F085
:103DF000102B000E112314C0E6FF15C0E6FF3EDFB6
:103E0000E552E552040E010111AF02D0D89003D063
:103E1000105D000E115902E3106B116B120034ECAF
:063E200015F039EF15F06A
:0A3E2600F28ED08EF28C1200F19C97
:103E3000F292F2881200D8CFE4FFE0CFE4FFE46E04
:103E4000DACFE4FFE2CFDAFFE9CFE4FFEACFE4FF25
:103E5000F6CFE4FFF7CFE4FFF5CFE4FFF3CFE4FFC5
:103E6000F4CFE4FFFACFE4FF00EE00F0140EE80414
:103E700003E3EECFE4FFFBD700EE14F00A0EE804F4
:103E800003E3EECFE4FFFBD7E652F2A407D067ECE2
:103E900019F0F29469EC19F013EC1BF09EA007D016
:103EA00052EC1AF09E900CEC1AF021EC1BF0A1A23F
:103EB00007D011EC1BF0A192CBEC1AF03DEC1BF0FB
:103EC000F2B2F2929EBA9E9AE55200EE1DF00A0EF0
:103ED000E80403E3E5CFEDFFFBD700EE13F0140E8B
:103EE000E80403E3E5CFEDFFFBD7E5CFFAFFE5CF2D
:103EF000F4FFE5CFF3FFE5CFF5FFE5CFF7FFE5CF23
:103F0000F6FFE5CFEAFFE5CFE9FFE5CFDAFFE550C1
:103F1000E5CFE0FFE5CFD8FF1000DACFE4FFE2CF36
:103F2000DAFFE9CFE4FFEACFE4FFF6CFE4FFF7CF13
:103F3000E4FFF5CFE4FFF3CFE4FFF4CFE4FFFACFE3
:103F4000E4FF00EE00F0140EE80403E3EECFE4FF1C
:103F5000FBD700EE14F00A0EE80403E3EECFE4FF13
:103F6000FBD7E652F2A407D067EC19F0F29469ECA3
:103F700019F013EC1BF09EA007D052EC1AF09E90A3
:103F80000CEC1AF021EC1BF0A1A207D011EC1BF0F5
:103F9000A192CBEC1AF03DEC1BF0F2B2F2929EBA79
:103FA0009E9AE55200EE1DF00A0EE80403E3E5CF09
:103FB000EDFFFBD700EE13F0140EE80403E3E5CFAA
:103FC000EDFFFBD7E5CFFAFFE5CFF4FFE5CFF3FF39
:103FD000E5CFF5FFE5CFF7FFE5CFF6FFE5CFEAFF49
:0A3FE000E5CFE9FFE5CFDAFF11009D
:063FEA0020005F00202012
:103FF0002020004441205448415920444F49004466
:10400000454E2058414E480044454E2056414E47AB
:104010000044454E20444F0043414E482042414F0A
:10402000004D4F444946592044454E2056414E4785
:1040300032004D4F444946592044454E2058414E88
:104040004832004D4F444946592044454E20564180
:104050004E4731004D4F444946592044454E205863
:10406000414E483100542E4449454D2056414E475B
:1040700020444F00432E4449454D2056414E472091
:10408000444F004E4F524D414C2056414E47204424
:104090004F00542E4449454D2058414E4820444F2E
:1040A00000432E4449454D2058414E4820444F007E
:1040B0004E4F524D414C2058414E4820444F0054E1
:1040C0002E4449454D20444F2056414E4700432E33
:1040D0004449454D20444F2056414E47004E4F52D3
:1040E0004D414C20444F2056414E4700542E4449E8
:1040F000454D20444F2058414E4800432E444945E9
:104100004D20444F2058414E48004E4F524D414C97
:0941100020444F2058414E4800A4
:06411A00006A0EAE96EFF4
:1041200020F00D6C0E1EE86A0E22001E09AE9EEFF6
:1041300020F0086C091EE86A0922001ED5EC21F067
:1041400009BEAEEF20F000AE000C086C091EE86A54
:104150000922046C051EE86A0522000C00BEA5EFCA
:1041600020F00188FF0C006A0EAEBEEF20F00C6C50
:104170000D1E0E1EE86A0D220E22001E09AEC8EFAB
:1041800020F0076C081E091EE86A08220922001E9A
:10419000B8EC21F009BEDBEF20F000AE000C076C9C
:1041A000081E091EE86A08220922036C041E051E67
:1041B00004220522000C00BECFEF20F00188FF0C86
:1041C00009C013F008C012F008500D02F4CF07F038
:1041D000F3CF06F009500E02F4CF09F0F3CF08F048
:1041E0000D02F3500726F4500822E86A0922125003
:1041F0000E02F3500726F4500822E86A09220EAE98
:1042000006EF21F01250085E1350095A13AE000C4D
:0A4210000D50085E0E50095A000C14
:06421A001E0EF66E000E00
:10422000F76E000EF86E0F010900F550256F0900BA
:10423000F550266F03E1256701D03DD00900F55008
:10424000206F0900F550216F0900F550226F090019
:104250000900F550E96E0900F550EA6E0900090001
:104260000900F550236F0900F550246F090009007B
:10427000F6CF27FFF7CF28FFF8CF29FF20CFF6FF93
:1042800021CFF7FF22CFF8FF0F01235302E1245380
:1042900007E00900F550EE6E2307F8E22407F9D78E
:1042A00027CFF6FF28CFF7FF29CFF8FF0F0125070B
:0842B000000E265BBFD71200CF
:0842B80006500B02F3CF02F0E7
:1042C000F4CF03F00C02F3500326000EF420046E2A
:1042D00006500D02F3500426000EF420056E065021
:1042E0000E02F350052607500B02F3500326F4503C
:1042F0000422000E052207500C02F3500426F4504D
:10430000052207500D02F350052608500B02F3500A
:104310000426F450052208500C02F35005260950DB
:084320000B02F3500526120008
:08432800056A046A036A026AD7
:10433000200EE76ED8900636073608360936023664
:104340000336043605360B50025C0C5003580D50F2
:1043500004580E50055809E30B50025E0C50035AE6
:104360000D50045A0E50055A062AE72EE4D71200C3
:10437000056A046A036A180EE76ED8900736083695
:1043800009360336043605360C50035C0D500458CC
:104390000E50055807E30C50035E0D50045A0E50A2
:0A43A000055A072AE72EEAD712009B
:0643AA00056A046A100E12
:1043B000E76ED89008360936043605360D50045C91
:1043C0000E50055805E30D50045E0E50055A082A9C
:0643D000E72EF0D71200F9
:0A43D600800EF36E00EE00F00F0EF3
:1043E00001D81200EA6002D0EE6AFCD7F350E9600F
:0643F0001200EE6AFCD78A
:0A43F6001EEE00F02EEE00F0F86A53
:10440000019C0DEC21F003EC00F03AEC00F0FBD73E
:02441000120098
:0E44120000000000000000000000000000009C
:104420000000000000000000000001000100010089
:02443000010089
:0E443200030004000500060001000200040063
:104440000800000000000000000000000000000064
:104450000100010000000000010001000100010056
:10446000000000000100000000000100000000004A
:104470000000000000000100010000000100000039
:104480000000010001000000000000000100000029
:10449000000001000000000000000100000000001A
:1044A000000000000000000000000000010001000A
:1044B00001000100000000000000000000000000FA
:1044C00000000000000000000000010000000000EB
:0E44D0000100010001000100010001000100D7
:0244DE000102D9
:1044E00004081020408000000000000000000000D0
:1044F00000000000000000000600000004000000B2
:024500000700B2
:0E45020001000300030002000200030003009A
:0845100002000200010000009E
:0845180000000000000000009B
:10452000101010101010101018181818181818184B
:104530001C1C1C1C1C1C1C1C1E1E1E1E1E1E1E1EAB
:104540001F1F1F1F1F1F1F1F000000000000000073
:10455000000000000000000000000000000000005B
:10456000000000000000000000000000000000004B
:0945700000000000000000000042
:07457900000000000000003B
:10458000000000000000000000000000000000002B
:104590000000000000000000001020408001020424
:0945A0000801020408102040800B
:020000040030CA
:0100010002FC
:0100020003FA
:010003001EDE
:010005008179
:010006008178
:010008000FE8
:01000900C036
:01000A000FE6
:01000B00E014
:01000C000FE4
:01000D0040B2
:00000001FF
